:10000000EBC700000C940A080C9408080C9408082C
:10001000FFC70000FDC70000FBC70000F9C70000D4
:10002000F7C70000F5C700000C94F41DF1C70000ED
:10003000EFC70000EDC70000EBC70000E9C70000F4
:10004000E7C70000E5C70000E3C70000E1C7000004
:10005000DFC70000DDC70000DBC70000D9C7000014
:10006000D7C70000D5C70000D3C70000D1C7000024
:10007000CFC700000C948B0ACBC70000C9C7000093
:10008000C7C70000C5C70000C3C70000C1C7000044
:10009000BFC70000BDC70000BBC70000B9C7000054
:1000A000B7C70000B5C70000B3C7000024034D0068
:1000B0005300200053006900640065007700690068
:1000C0006E006400650072005700680065006500FE
:1000D0006C002000460046004200000024034D0052
:1000E0005300200053006900640065007700690038
:1000F0006E00640065007200500072006F00200006
:1001000046004600420000001803440065006100FC
:100110006E002000430061006D0065007200610008
:1001200000000403090409026600030100C032094B
:100130000400000203000000092111010001224413
:10014000050705020340000107058103400001087F
:100150000B01020202010009040100010202010078
:1001600005240010010424020605240601020705E7
:1001700085030800FF09040200020A0000000705C9
:100180000402100001070583021000011201100192
:10019000EF020108EB0356200100010200011201E9
:1001A0001001EF020108EB034E20010001020001E3
:1001B00005010904A10185010904A10009300931E3
:1001C000093216000026FF03350046FF039503752C
:1001D00010810209351500253F3500452E95017522
:1001E0000681027502950181016500093309341504
:1001F0000025FF45FF7508750895028102C0093684
:100200001580257F45FF750895018102050209BB10
:100210001500253F453F7508950181020509190123
:100220002908150025014501750195088102190964
:100230002910750195088102050109399501750498
:1002400015002507463B016514814275049501811F
:100250000155006500050F0992A1028502099F0959
:10026000A009A409A509A6150025013500450175B9
:100270000195058102950381030994150025013537
:1002800000450175019501810209221501252835D6
:10029000014528750795018102C00921A102850148
:1002A0000922150125283501452875089501910277
:1002B0000925A10209260927093009310932093324
:1002C000093409400941094209430928250C15014F
:1002D0003501450C750895019100C0095009540974
:1002E00051150026FF7F350046FF7F66031055FD40
:1002F00075109503910255006600000952150026FD
:10030000FF00350046102775089501910209531525
:10031000012508350145087508950191020955A187
:100320000205010930093115002501750195029179
:1003300002C0050F095695019102950591030957D1
:10034000A1020B01000A000B02000A00661400550E
:10035000FE150026B400350047A08C0000660000A2
:100360007508950291025500660000C0050F6603EE
:100370001055FD150026FF7F350046FF7F7510954F
:10038000016600005500C0050F095AA10285020947
:100390002215012528350145287508950191020986
:1003A0005B095D150026FF00350046102795029178
:1003B00002095C095E66031055FD26FF7F46FF7F3C
:1003C0007510910245006600005500C0095FA1024A
:1003D0008503092215012528350145287508950151
:1003E0009102092315002501350045017504950189
:1003F00091020958A1020B01000A000B02000A0039
:10040000750295029102C01580257F36F0D84610FE
:1004100027096075089501910236F0D84610270922
:100420006195019102150026FF003500461027094D
:10043000630964750895024610279501C0096EA1ED
:1004400002850409221501252835014528750895DE
:100450000191020970150026FF003500461027752E
:100460000895019102096F1580257F36F0D8461056
:100470002795019102097166140055FE150026FFAB
:1004800000350047A08C00009102097226FF7F46CC
:10049000FF7F66031055FD751095019102660000FF
:1004A0005500C00973A102850509221501252835CB
:1004B00001452875089501910209701601FF26FF74
:1004C0000036F0D8461027751095019102C00974C6
:1004D000A102850609221501252835014528750840
:1004E00095019102097509761580257F36F0D84669
:1004F0001027750895029102C00968A102850709B5
:100500002215012528350145287508950191020914
:100510006C1500261027350046102775109501919F
:100520000209691581257F350046FF007508950C85
:10053000920201C00966A10285080501093009314E
:100540001581257F350046FF00750895029102C090
:10055000050F0977A102850A092215012528350111
:1005600045287508950191020978A1020979097A4F
:10057000097B15012503750895019100C0097C15BB
:100580000026FF00350046FF009102C00990A1023D
:10059000850B092225281501350145287508950187
:1005A0009102C00996A102850C0997099809990939
:1005B0009A099B099C15012506750895019100C0B3
:1005C000097DA102850D097E150026FF0035004634
:1005D0001027750895019102C0096BA102850E09CB
:1005E0002215012528350145287508950191020934
:1005F0006D150026FF00350046FF00750895019136
:1006000002095166031055FD150026FF7F3500468F
:10061000FF7F7510950191025500660000C009AB7F
:10062000A10285050925A1020926092709300931FA
:1006300009320933093409400941094209430928AB
:10064000250C15013501450C75089501B100C00553
:1006500001093B150026FF01350046FF01750A958B
:1006600001B1027506B101C0050F0989A102850615
:100670000922252815013501452875089501B10283
:10068000098BA102098C098D098E250315013501FD
:10069000450375089501B100C009AC150027FFFF9F
:1006A0000000350047FFFF000075109501B100C044
:1006B000097FA10285070980751095011500350095
:1006C00027FFFF000047FFFF0000B102098326FF5C
:1006D0000046FF0075089501B10209A909AA750134
:1006E00095021500250135004501B10275069501F9
:1006F000B103C0C005010904A10185010901A100E0
:100700000930093109321600FE26FF01350046FF87
:100710000395037510810209351500253F35004505
:100720002E9501750681027502950181016500090A
:10073000330934150025FF45FF75087508950281BA
:1007400002C009361580257F45FF75089501810295
:10075000050209BB15C0253F457F7508950181023B
:10076000050919012908150025014501750195089C
:1007700081021909291075019508810205010939BD
:100780009501750415002507463B016514814275E6
:10079000049501810155006500050F0992A10285AC
:1007A00002099F09A009A409A509A615002501357C
:1007B0000045017501950581029503810309941592
:1007C00000250135004501750195018102092215B9
:1007D00001252835014528750795018102C00921A9
:1007E000A102850109221501252835014528750832
:1007F000950191020925A10209260927093009312D
:1008000009320933093409400941094209430928D9
:10081000250C15013501450C750895019100C0099D
:100820005009540951150026FF7F350046FF7F66A9
:10083000031055FD751095039102550066000009DF
:1008400052150026FF0035004610277508950191C6
:1008500002095315012508350145087508950191D0
:10086000020955A10205010930093115002501755C
:100870000195029102C0050F095695019102950557
:1008800091030957A1020B01000A000B02000A00A4
:1008900066140055FE150026B400350047A08C00F4
:1008A000006600007508950291025500660000C0C0
:1008B000050F66031055FD150026FF7F350046FF26
:1008C0007F751095016600005500C0050F095AA1FB
:1008D000028502092215012528350145287508954C
:1008E000019102095B095D150026FF0035004610E5
:1008F0002795029102095C095E66031055FD26FFEB
:100900007F46FF7F7510910245006600005500C0CC
:10091000095FA10285030922150125283501452813
:10092000750895019102092315002501350045013F
:100930007504950191020958A1020B01000A000BF0
:1009400002000A00750295029102C01580257F36CB
:10095000F0D8461027096075089501910236F0D845
:10096000461027096195019102150026FF00350008
:1009700046102709630964750895024610279501FA
:10098000C0096EA1028504092215012528350145FB
:10099000287508950191020970150026FF003500A1
:1009A000461027750895019102096F1580257F363D
:1009B000F0D846102795019102097166140055FE82
:1009C000150026FF00350047A08C00009102097237
:1009D00026FF7F46FF7F66031055FD751095019138
:1009E000026600005500C00973A1028505092215A1
:1009F00001252835014528750895019102097016D1
:100A000001FF26FF0036F0D846102775109501919A
:100A100002C00974A10285060922150125283501A5
:100A20004528750895019102097509761580257F7D
:100A300036F0D8461027750895029102C00968A1C2
:100A400002850709221501252835014528750895D5
:100A5000019102096C1500261027350046102775F4
:100A6000109501910209691581257F350046FF0027
:100A70007508950C920201C00966A102850805015E
:100A8000093009311581257F350046FF007508952D
:100A9000029102C0050F0977A102850A09221501FA
:100AA0002528350145287508950191020978A1028C
:100AB0000979097A097B15012503750895019100CB
:100AC000C0097C150026FF00350046FF009102C0DA
:100AD0000990A102850B0922252815013501452819
:100AE000750895019102C00996A102850C09970924
:100AF000980999099A099B099C150125067508957D
:100B0000019100C0097DA102850D097E150026FF17
:100B1000003500461027750895019102C0096BA1A8
:100B200002850E09221501252835014528750895ED
:100B3000019102096D150026FF00350046FF007582
:100B40000895019102095166031055FD150026FF15
:100B50007F350046FF7F75109501910255006600B4
:100B600000C009ABA10285050925A10209260927B4
:100B70000930093109320933093409400941094270
:100B800009430928250C15013501450C7508950107
:100B9000B100C00501093B150026FF01350046FFE5
:100BA00001750A9501B1027506B101C0050F0989E9
:100BB000A102850609222528150135014528750859
:100BC0009501B102098BA102098C098D098E2503BB
:100BD00015013501450375089501B100C009AC1533
:100BE0000027FFFF0000350047FFFF00007510954C
:100BF00001B100C0097FA102850709807510950128
:100C00001500350027FFFF000047FFFF0000B1027D
:100C1000098326FF0046FF0075089501B10209A966
:100C200009AA750195021500250135004501B1029B
:100C300075069501B103C0C04572726F723A207596
:100C40006E6B6E6F776E206566666563742074796F
:100C5000706520746F20656E61626C652F646973C6
:100C600061626C65002053696E657320646973610D
:100C7000626C65640A0020547269616E676C65730A
:100C80002064697361626C65640A0020436F6E734F
:100C900074616E74732064697361626C65640A00C8
:100CA00020537072696E67732064697361626C654A
:100CB000640A00456666656374733A0A0045727299
:100CC0006F723A20756E6B6E6F776E20636F6D6D0D
:100CD000616E64002C20646174613D00436F6D207F
:100CE000203D3E20436F6D6D616E643D0052656333
:100CF000656976656420646174613D0045787020A3
:100D000064617461206C656E3D0020203D20536558
:100D100074436F6E74726F6C4C696E65537461745A
:100D2000650020203D205365744C696E65456E63F7
:100D30006F64696E670020203D204765744C696EC2
:100D400065456E636F64696E67004374726C5265CB
:100D5000712876616C2C6964782C726571293A006F
:100D600053746F70206D616E75616C3A000A2020BB
:100D70006761696E3D000A20206661646554696D93
:100D8000653D0020206475726174696F6E3D0020BE
:100D900028456E61626C6564290A002028446973E5
:100DA00061626C6564290A00204672656500205303
:100DB000656E740020506C6179696E670A0020418D
:100DC0006C6C6F636174656400203D3E204D696406
:100DD000693A00446576696365204761696E3A2027
:100DE000004F746865722000426C6F636B2046721E
:100DF00065653A200020556E6B6E6F776E206F70C0
:100E000065726174696F6E002053746F70002053B7
:100E100074617274536F6C6F00205374617274004C
:100E2000456666656374204F7065726174696F6EA4
:100E30003A004765745265706F72742050494420BF
:100E4000506F6F6C2046656174757265002020627A
:100E50007574746F6E3D0020207265706561743D1D
:100E6000002020593D002020583D0020206475724C
:100E7000613D0020206761696E3D0020207479701B
:100E8000653D002020696420203D005365742045A5
:100E900066666563743A002C207374617475733DE3
:100EA00000437265617465204E657720456666650E
:100EB0006374203D3E2069643D0055736220203DEF
:100EC0003E002020656E6420203D00202073746168
:100ED00072743D00202069643D00536574205261A6
:100EE0006D7020466F7263653A0020206D61676EF9
:100EF00069747564653D00202069643D0053657424
:100F000020436F6E7374616E7420466F7263653A2E
:100F1000002020706572696F642020203D00202031
:100F20007068617365202020203D0020206F666678
:100F30007365742020203D0020206D61676E697408
:100F40007564653D00202069643D00536574205040
:100F50006572696F6469633A002020636F65666635
:100F60002B3D0020206F66667365743D0020206273
:100F70006C6F636B203D00202069642020203D00C1
:100F800053657420436F6E646974696F6E3A002014
:100F9000206661646554696D6520203D00202061F4
:100FA000747461636B54696D653D002020666164F3
:100FB0006520203D00202061747461636B3D00203A
:100FC000206964202020203D0053657420456E7602
:100FD000656C6F70653A000011241FBECFEFDAE038
:100FE000DEBFCDBF12E0A0E0B1E0E2E7F9E402C06D
:100FF00005900D92A63EB107D9F728E0A6EEB2E023
:1010000001C01D92A23CB207E1F793D70C949F2434
:101010000C9400005F935FB75F9357EE56BD4F93FC
:10102000AF93BF93B6E0A091840650918506452FFB
:1010300053955093850653B15295507E477069F091
:101040004530B9F0423069F04330F1F04630E9F014
:101050004130E1F04430D9F01BC0529556955E9373
:101060001AC0550F4C91542B5C935527551F5E9316
:1010700012C057FB550F550F4C91542B5C935527BD
:10108000551F51F95E9307C056955695569556953E
:101090004C91542B5C93A0938406BF91AF914F91D8
:1010A0005F915FBF5F911895DC0154E0A50F5C91E3
:1010B000509550FB5095A1503C91369557955093C3
:1010C000AD0642E0340F33705C91A1504C914695CF
:1010D00057955C7F532B5093AE0638E0430F4F700B
:1010E000A2505C91550F550F5051507F542B509387
:1010F000AF063C9142E0340F3370A3954C91407F92
:10110000342B3295330F330F54E0A50F5C9150957B
:1011100056953795569537953093B00656F9A350A6
:101120004C9145FB57F95093B106A1505C9138E0C2
:10113000530F5F70440F551F440F551F5093B20655
:101140000895DC0145E0A40F5C91A395A3953C9123
:101150003873330F3295550F369557954EEF340F40
:1011600033705093AD064C914770A3505C91550F6E
:10117000469557952EEF420F4370550F441F550F5C
:10118000441F532B5093AE06342FA2505C91A3956D
:101190004C914871550F440F42954695579540958F
:1011A00040FB5295452F407F432B4093AF065F7025
:1011B00054F9352FA3505C91507747E0A40F4C9120
:1011C00046FB57F9505157FB550F532B5093B00620
:1011D000332730F9AA955C91A3504C9146FB57F9FF
:1011E00050954427550F441F532B5093B106342F6D
:1011F000A2505C91A395A3954C914770550F4695CD
:1012000057952EEF420F437057FB550F532B5093BA
:10121000B206440F40F94093B3060895482F362F85
:101220008827F894E09AE89A2227189B2FEF51E03C
:1012300053BD5CE956BDA89A2093850654E85093A7
:10124000840678942498259850E05A95F1F7249ACA
:10125000259A50918506521719F4A89BFACF089544
:1012600050918506521B250F231728F444238AF733
:10127000450F7AF3E7CF83950895D0DF882371F087
:1012800050918506563151F4F894552750938506B0
:1012900050918406539550938406789408950E9443
:1012A000761B86E08093860683E08093810085E04C
:1012B00085BD80918606815030F588EE93E00E94CE
:1012C0008A110E94791210BA80917A008760809307
:1012D0007A0080917C00806480937C0080917C0007
:1012E000806280937C0080917A00806880937A008D
:1012F00080917A00886080937A0080917A0080647F
:1013000080937A000895E82FF0E0DF01A355B94FEC
:101310009C91E757F94F2081291769F29083CBCF31
:1013200081E090E00895CF93DF93EB0183E085BDEA
:101330000E94B41B8091E602882381F11092E6029C
:101340008091EE02843009F466C040F4882369F08D
:10135000813009F45AC01092EE020EC08530D9F7E0
:10136000809179008093F202F6CF8091790080938A
:10137000EF0281E08093EE0280917C00887F809371
:101380007C008091EE0290917C008770892B809385
:101390007C0080917A00806480937A0081E0888369
:1013A0008091B4068430E9F58091AF0624E0829FF5
:1013B000C00111242091B006229526952695237010
:1013C000822B80959D878C878091B10690E0982F25
:1013D0008827882793702091B206820F911D9A83E7
:1013E00089838091B10644E0849FC0011124807FED
:1013F00093709C838B838091B00680958F738B87CD
:1014000081E090E0DF91CF91089580917900809301
:10141000F00284E0AFCF809179008093F10285E003
:10142000A9CF8091AE0690E0982F882788279370E7
:101430002091AD06820F911D9A8389832091AE067B
:1014400021FF03C09C6F9A8389833091AF068091FE
:10145000AE068695869590E4399FA0011124407CC4
:101460005370840F952F911D33FD43C09C838B8354
:101470008091B1062091B00686FF3DC08F7B80939E
:10148000B10694E0299FA00111244427537090E0F5
:10149000982F8827990F990F840F951F9D878C8708
:1014A00032953F703E872F7320522F832091B206D2
:1014B000822F880F8E779091B106991F9927991FD7
:1014C000890F25FD26C08B871E821D828091F20226
:1014D0009091F102891B990B97FD0196959587953F
:1014E00080588A878091F00288878091EF028987EF
:1014F00087CF9C6FBBCF44E0849FC00111248C7FB9
:101500009170422F4295469546954370840F911DE8
:10151000C5CF806CD8CF8F9381E08093E6028F9106
:101520001895CF92DF92EF92FF920F931F93CF9374
:10153000DF9300D0CDB7DEB76A837A01292F30E080
:1015400089832430310509F48CC0A8F406E610E044
:1015500056E2C52E51E0D52E22303105A9F12330B7
:10156000310509F44CC02130310501F110E000E0F3
:10157000D12CC12C29C009E010E048E3C42E41E081
:10158000D42E2132310501F12232310579F78091D3
:10159000B40604E415E074EFC72E76E0D72E84304D
:1015A00099F420EBC22E21E0D22E0EC08091B40619
:1015B00002E110E03CE8C32E31E0D32E843021F06C
:1015C0008EE9C82E81E0D82E61E070E0CE01019650
:1015D0000E94331C61E070E0CE0102960E947F1CE5
:1015E000F701D182C082C8010F900F90DF91CF9197
:1015F0001F910F91FF90EF90DF90CF900895813071
:1016000071F08230B1F08111B1CFE2E2F1E0E4910A
:101610000E2F10E0B2E2CB2EB1E0DB2ED5CFE8E00A
:10162000F1E0E4910E2F10E0A8E0CA2EA1E0DA2E3E
:10163000CBCF8091B406843051F4ECEAF0E0E49131
:101640000E2F10E0FCEACF2EF0E0DF2EBDCFECED48
:10165000F0E0E4910E2F10E0ECEDCE2EE0E0DE2E77
:10166000B3CF8A8109E010E09FE2C92E91E0D92E24
:10167000882309F4A9CF65E7C62E61E0D62E813014
:1016800009F0A2CF87E5C82E81E0D82E9DCF9BB16F
:101690009F7B982B9BB90895F999FECF60E890E065
:1016A00080E00E945624F999FECF64E681E090E044
:1016B0000C945624F999FECF90E080E00E944E24CD
:1016C000803809F0E9DFF999FECF81E090E00E94CF
:1016D0004E24809388060895853608F084E680932A
:1016E0008806F999FECF6091880681E090E00C941D
:1016F000562484B7877F84BF0FB6F894A89580914D
:101700006000886180936000109260000FBE80E8E6
:1017100090E00FB6F89480936100909361000FBE43
:10172000569A5E98BCDD0C94DC1D80E4B0CF80E05E
:10173000AECFCF93DF9342E361EC81E00E94191DAD
:10174000C82F42E360EC82E00E94191DD82F42E1CD
:1017500061E883E00E94191DCD23C82342E160E8BF
:1017600084E00E94191DC82342E061EC85E00E94DC
:10177000191D1092000110920101109202011092A5
:101780000301CC2311F0811104C080E4DF91CF91DB
:101790007ECF80E0FBCFEF92FF921F93CF93DF933A
:1017A000CDB7DEB764970FB6F894DEBF0FBECDBFDE
:1017B0008091BE089091BF08F12CE12C019721F493
:1017C00080E0E82E81E0F82E1091FC01812F0E942C
:1017D000E81B8823B1F08AE49DE00E945D1C62E072
:1017E00070E08CEB98E00E94331C62E070E08EEBBE
:1017F00098E00E94331C61E070E08BEB98E00E945F
:101800007F1C8091BB08803209F4BFC088F481300E
:1018100049F1893009F45FC064960FB6F894DEBFD1
:101820000FBECDBFDF91CF911F91FF90EF90089534
:10183000813209F48CC0823279F7812F0E94E81B33
:10184000882321F08AE09DE00E945D1C8091BA0807
:10185000813211F78091E800877F8093E8000E9431
:101860004C1DDACF812F0E94E81B882321F080E0F5
:1018700092E00E94531C8091BA08813A69F680E494
:1018800006DF8091BC089091BD08873023E0920765
:10189000B1F4CE0101962CD48091E800877F80932B
:1018A000E80065E070E0CE0101960E94561F80912D
:1018B000E8008B778093E80080E0E9DEADCFBE01E1
:1018C0006F5F7F4F30DD8091E800877F8093E80075
:1018D0006FE070E0E8CF812F0E94E81B882321F0A1
:1018E0008AE092E00E94531C8091BA08813209F08C
:1018F00093CF80E4CCDE8091E800877F8093E8007E
:101900006091C0087091C108CE0101960E94AC1F81
:101910000E944C1D8091BC089091BD088530934079
:1019200059F68FEC97E00197F1F700C00000BE0177
:10193000605F7F4FCE010196FAD48091E800877FE7
:101940008093E80065E070E0CE014096AECF812F35
:101950000E94E81B882321F086E39DE00E945D1C25
:101960008091BA08813A09F057CF8091E800877FCB
:101970008093E80067E070E0C7010E94561F8091E5
:10198000E8008B778093E80047CF812F0E94E81B07
:10199000882321F082E29DE00E945D1C8091BA08BC
:1019A000813209F039CF8091E800877F8093E80089
:1019B00067E070E0C7010E94AC1F8091E8008E775D
:1019C000E1CFCF92DF92EF92FF921F93CF93DF93FD
:1019D000CDB7DEB7C054D1090FB6F894DEBF0FBE45
:1019E000CDBF8091B908843089F581E08093E9000A
:1019F0008091E80080FF13C0BE016F5F7F4F809130
:101A0000090191DC50E040E06FE070E0CE0101960A
:101A10000E94BA1E8091E8008E778093E80082E0F1
:101A20008093E9008091E80082FF10C080E42FDEFF
:101A300010E09091F3008091F200892B11F01034A6
:101A4000A0F08091E8008B778093E800C05CDF4FC6
:101A50000FB6F894DEBF0FBECDBFDF91CF911F91BF
:101A6000FF90EF90DF90CF90089550E040E061E06C
:101A700070E0CE0101960E94081F8530B1F31F5F10
:101A8000E981E150FF0BEE0FFF1FE65FFE4FC080C4
:101A9000D180760121E0E21AF108C701810F911D82
:101AA00080349105B8F080E0F2DD8FEF91EE24E014
:101AB000815090402040E1F700C0000080E4E7DD65
:101AC0008FEF91EE24E0815090402040E1F700C07C
:101AD0000000E9CF50E040E0B701CE0102960E943D
:101AE000081F8530B9F31E0DB601CE01019672D6DE
:101AF0008FE99FE00197F1F700C000009ACF982F7F
:101B000080ED890F8A3070F08FE9890F863018F4E4
:101B100089EA890F08958FEB890F863010F489ECDC
:101B2000F8CF8FEF0895CF93DF930F92CDB7DEB745
:101B300083EB9CE00E945D1C1982CE010196C4D605
:101B4000811124C080919506882321F080EA9CE0D1
:101B50000E945D1C80919606882321F08BE89CE012
:101B60000E945D1C80919706882321F086E79CE007
:101B70000E945D1C80919806882321F085E69CE0F8
:101B80000E945D1C0F90DF91CF9108950E94FA1C76
:101B9000D4CF843639F4809108016095682360932E
:101BA0000801089580910801682BF9CF982F862F9E
:101BB000983009F4FEC6913009F401C7953009F454
:101BC00004C7923009F407C788E39CE00C94751CA5
:101BD0000F931F93CF93DF93CDB7DEB7E2970FB686
:101BE000F894DEBF0FBECDBF809188061F928F9301
:101BF00084E192E09F938F938E010F5F1F4F1F939D
:101C00000F930E94C121C8010E94531C0F900F9096
:101C10000F900F900F900F90E2960FB6F894DEBFE2
:101C20000FBECDBFDF91CF911F910F91089554DD6D
:101C3000CFCFEF92FF920F931F93CF93DF930F922B
:101C4000CDB7DEB789838B017A018CED9CE00E94D1
:101C50005D1C61E070E0CE0101960E94331C84EDB2
:101C60009CE00E945D1CB701C8010E947F1C898115
:101C7000982F9F7D943459F4F80160818ADF0F908A
:101C8000DF91CF911F910F91FF90EF9008958D36C6
:101C900021F4B701C80168D4F2CF853721F4B70128
:101CA000C80198D5ECCF60E0843719F0843529F469
:101CB00061E0F80180817ADFE2CF60E0853619F0DB
:101CC000853429F461E0F80180818BD6D8CF833741
:101CD00021F4F8018081ABDFD2CF8DEB9CE00E9434
:101CE000751CCDCF1F93CF93DF930F92CDB7DEB787
:101CF000182F69838091FC010E94E81B882351F012
:101D00008DEE9CE00E945D1C61E070E0CE010196CA
:101D10000E947F1CE0911C03F0E0EC50FD4F898194
:101D2000808380911C038F5F80931C0390911C0320
:101D300080912003981758F04091200350E064EF01
:101D400072E0812F76DF10921F0310921C030F9018
:101D5000DF91CF911F9108950F931F93CF93DF933E
:101D60000F92CDB7DEB7898380911F031091FC01DC
:101D7000811124C0812F0E94E81B882331F061E08B
:101D800070E0CE0101960E947F1C89819FED980F23
:101D90009A3518F48C3639F4C6DE0F90DF91CF9166
:101DA0001F910F910895833511F412DFF6CF8093C0
:101DB0001F0310921E0310922003EFCF812F0E9469
:101DC000E81B882331F061E070E0CE0101960E94AB
:101DD000331C00911E03898192DE01110AC08F3FDE
:101DE000E1F291E090931E038295807F809320031F
:101DF000D4CF90911E039130D9F48F3F71F292E0CD
:101E000090931E0390912003890F80932003812FCC
:101E10000E94E81B882309F4C0CF8CEF9CE00E944D
:101E20005D1C61E070E080E293E00E947F1CB5CF12
:101E30008F3F09F4B2CF90911E039F5F90931E03D2
:101E400090911E0390FF05C08295807F80931D03B3
:101E5000A4CF90911D03890F80931D0360911D03F2
:101E600080911F033FDF99CFEF92FF920F931F9353
:101E7000CF93DF93CDB7DEB7C058D1090FB6F89432
:101E8000DEBF0FBECDBF1091B908143069F50E94B6
:101E9000FA1C1093E9008091E80082FF25C080E4DD
:101EA000F6DB10E000E09091F3008091F200892BC6
:101EB00019F00038110530F18091E8008B7780939C
:101EC000E800CE0101967C01080F191FE016F1060B
:101ED00059F5FFEF21EE84E0F15020408040E1F71A
:101EE00000C0000080E0D3DBC058DF4F0FB6F8948D
:101EF000DEBF0FBECDBFDF91CF911F910F91FF903D
:101F0000EF9008950F5F1F4F81E090E08C0F9D1FB1
:101F1000800F911F50E040E061E070E001970E9467
:101F2000081F853079F3BFCFF70181917F0114DF5E
:101F3000CDCFDFDB80E0ABDB7894BCDBF1D9892B44
:101F400059F03FDD0E94FA1C8FDF0E94FA1C0E94AC
:101F500082210E94FA1CF2CF80E499DB8CE291E0AE
:101F6000D9D180E094DB8CE291E0D4D1E7CF2EE1AF
:101F7000829FC00111248A5D9E4F90932B0680930F
:101F80002A06089580910701843161F1809107014B
:101F900091E0980F9093070125E2E09107012E9FB1
:101FA000F0011124EF5DFC4F9081911111C095E279
:101FB000899F90011124F901EF5DFC4F91E090831E
:101FC000255D3C4F9BE1F90111929A95E9F708953F
:101FD00090910701943158F7909107019F5F90937A
:101FE0000701DBCF80E00895853148F495E2899FB1
:101FF000F0011124EF5DFC4F8081826080830895A1
:102000008531C0F4E82FF0E095E2899FD0011124DA
:10201000AF5DBC4F9C919D7F9C93EC56F94F958191
:10202000911108C0E0912A06F0912B060284F385F5
:10203000E02D09940895CF93C1E08C2FE1DFCF5FAD
:10204000C531D9F7CF9108958531A8F495E2899FDC
:10205000F0011124EF5DFC4F108290910701891768
:1020600010F480930701E0912A06F0912B06048476
:10207000F585E02D0994089582E080930701E1E25F
:10208000F3E089E093E0DF019C011D922150304094
:10209000E1F708959C012F3F320751F0C901969551
:1020A00087958F77992722273F77822B932B089547
:1020B00090E080E00895282F082E000C330B87FF56
:1020C00002C020583048C9010895262F90918806F3
:1020D000899FC001112464E670E00E94A821269F18
:1020E000C001279F900D1124892F8595859508950E
:1020F000CF93DF93EC018091FC010E94E81B8823C1
:1021000021F082E39EE00E94751CB6DF87E08883A1
:102110008FEF9FEF9A8389838AE08B8383E08C83A0
:10212000DF91CF9108958091FC010E94E81B8823E4
:1021300021F08BE292E00C94531C08958091FC01F5
:102140000E94E81B882321F081E492E00C94531C48
:102150000895FF920F931F93CF93DF930F92CDB704
:10216000DEB78C01FC0181818983F090FC018F2D09
:102170000E94E81B882351F080E29EE00E945D1CD3
:1021800061E070E0CE0101960E94331C89818F3F8F
:1021900011F48FE78983F8018281813019F58F2D41
:1021A0000E94E81B882321F089E19EE00E94751CB3
:1021B000F801818119DF8981E82FF0E0EC56F94FB1
:1021C0009581911108C0E0912A06F0912B060084B8
:1021D000F185E02D09950F90DF91CF911F910F911F
:1021E000FF900895823069F58F2D0E94E81B8823A7
:1021F00021F08EE09EE00E94751C1DDFE981F0E079
:10220000EC56F94F8581811109C0E0912A06F091C1
:102210002B060284F385E02D8FE70995F801818173
:10222000E3DEE981F0E0EC56F94F85818111D3CFEF
:10223000E0912A06F0912B060084F185E02D8FE7CE
:10224000C9CF833069F48F2D0E94E81B882321F0C9
:1022500088E09EE00E94751CF8018181D1DEBBCF31
:102260008F2D0E94E81B882309F4B5CF85EF9DE0F0
:102270000E94751C61E070E0C80102960E947F1CFC
:10228000AACFCF93DF930F92CDB7DEB7FC01818148
:1022900089838091FC010E94E81B882351F088EE1D
:1022A0009DE00E945D1C61E070E0CE0101960E94FD
:1022B0007F1C89818F3F71F4DFDEE0912A06F09167
:1022C0002B060484F585E02D8FE709950F90DF91AB
:1022D000CF910895B9DEFACFCF93DF93EC0183ED70
:1022E0009DE00E945D1C61E070E0CE010196DF91EF
:1022F000CF910C947F1C815008F4089590E39A9537
:10230000F1F7F9CF2498259885E0F5DF249A259AEE
:1023100081E0F1CF9C012150310908F40895A8957E
:102320008FE99FE00197F1F700C00000F4CFCF9252
:10233000DF92EF92FF920F931F93CF93DF937C0175
:10234000EB0186E088831EDE8983811135C082E03F
:102350008A838FEF9FEF9C838B838091FC010E9487
:10236000E81B8823B1F081EA9EE00E945D1C61E0D9
:1023700070E0CE0101960E94331C87E99EE00E9426
:102380005D1C61E070E0CE0102960E947F1C0E94FD
:10239000FA1C25E030E0AE0168818CE692E00E94F4
:1023A0008C1C85E090E0DF91CF911F910F91FF9001
:1023B000EF90DF90CF90AECF91E09A8395E2899F26
:1023C00080011124F801EF5DFC4F6F018FEF9FE753
:1023D00092838183948383838FEF8583168287839F
:1023E0008087F7018181E0912A06F0912B06068013
:1023F000F781E02D81500995F801E55DFC4F81835F
:10240000E0912A06F0912B060088F189E02DB601B3
:10241000C70109959ECFCF93DF93EC01898192E0AC
:102420009093910690919206946090939206909169
:10243000920690619093920610929306813061F417
:1024400083E792E00E94531C809192068E7F8093D6
:102450009206DF91CF910895823041F485E892E0B1
:102460000E94531C809192068460F1CF833081F4E6
:1024700086E992E00E94531CE0912A06F0912B0617
:102480000480F581E02D80E0099510929306E1CF5C
:10249000843099F487EA92E00E94531CE0912A0666
:1024A000F0912B060480F581E02D81E009958BE405
:1024B00090E030DFDF91CF91DFCD853031F48DEAD0
:1024C00092E0DF91CF910C94531C863019F483EB8A
:1024D00092E0F7CF807C09F4BCCF81EE9DE00E94B2
:1024E0005D1C61E070E0CE010196DF91CF910C940C
:1024F0007F1CE4E9F6E089E1DF011D928A95E9F7A6
:10250000539A1092C8008FE190E09093CD00809391
:10251000CC0086E88093CA0088E08093C9001092BE
:10252000CE00E1E2F3E089E093E0DF019C011D923F
:1025300021503040E1F7E1E9F6E083E0DF011D9250
:102540008A95E9F782E080930701E0912A06F091ED
:102550002B060190F081E02D09949091C80095FF21
:10256000FCCF8093CE000895EF92FF920F931F93BC
:10257000CF93DF937C01EB0180910801882341F028
:1025800089EC9DE00E945D1CBE01C7010E947F1C7A
:102590008701CE0DDF1D0C171D0739F4DF91CF9198
:1025A0001F910F91FF90EF900895F80181918F0195
:1025B000D4DFF1CFFF920F931F93CF93DF9300D01F
:1025C0000F92CDB7DEB7082FF92E162FE0912A060D
:1025D000F0912B060280F381E02DCE010396099540
:1025E0006B8170E0C1DF612F70E0802F9F2DBCDF19
:1025F00020E01150C0F421952F772A8361E070E02C
:10260000CE010296B1DF87EF898361E070E0CE01F1
:102610000196AADF0F900F900F90DF91CF911F913D
:102620000F91FF900895E02FFF2D8191280F0E2F1D
:10263000FF2EDFCFCF92DF92EF92FF920F931F9387
:10264000CF93DF93EC010981E02EF12C25E2029F6C
:1026500080011124C8018F5D9C4F6C018091FC01A9
:102660000E94E81B882309F465C08BE89EE00E9465
:102670005D1C6EE070E0CE010E947F1C83E89EE04E
:102680000E945D1C61E070E0CE0101960E947F1CFB
:102690008BE79EE00E945D1C61E070E0CE01029637
:1026A0000E947F1C83E79EE00E945D1C61E070E059
:1026B000CE0109960E947F1C8BE69EE00E945D1C65
:1026C00062E070E0CE0103960E947F1C8B85882318
:1026D000A1F086E69EE00E945D1C61E070E0CE0104
:1026E0000C960E947F1C81E69EE00E945D1C61E0CA
:1026F00070E0CE010D960E947F1C8D819E81892BFA
:1027000051F087E59EE00E945D1C62E070E0CE0122
:1027100005960E947F1C8A85882351F08DE49EE0F7
:102720000E945D1C61E070E0CE010A960E947F1C51
:102730000E94FA1C055D1C4F8B819C818F3FEFE747
:102740009E0709F042C0F801148213828B819C819C
:1027500025E22E9DF0012F9DF00D1124EF5DFC4F21
:1027600092838183808182FF0CC0F8016381748130
:10277000E0912A06F0912B060684F785E02D8981E9
:102780000995E0912A06F0912B06048CF58DE02D39
:10279000B601CE010995682F85E28E9DE0018F9DDF
:1027A000D00D1124CF5DDC4F888182FD05C0C801AA
:1027B00001DF888184608883DF91CF911F910F9121
:1027C000FF90EF90DF90CF90089564DCF801948340
:1027D0008383BCCFCF93DF93EC019B015E9AAC0166
:1027E0006AE071E08AEB9EE00E94AD1C6981E8819D
:1027F000E150EE3038F4F0E0EF55FB4D0C94BB2186
:10280000CE0118DF5E98DF91CF91089585E2689F31
:10281000B00111246F5D7C4FE0912A06F0912B06E8
:102820000288F389E02DCE010995ECCF85E2689FFF
:10283000B00111246F5D7C4FE0912A06F0912B06C8
:102840000488F589E02DEFCF85E2689FB00111245F
:102850006F5D7C4FE0912A06F0912B060688F78980
:10286000E02DE1CF85E2689FB00111246F5D7C4FC0
:10287000E0912A06F0912B06008CF18DE02DD3CF4C
:1028800085E2689FB00111246F5D7C4FE0912A06BC
:10289000F0912B06028CF38DE02DC5CFCE0143DCE9
:1028A000B1CFCE014BDCAECFCE0153DCABCFCE01EE
:1028B000E8DCA8CFCE01AFDDA5CFCE010DDDA2CFE4
:1028C0008BE592E0F0D79ECFEF92FF920F931F938C
:1028D000CF93DF93EC018881811102C082E088836D
:1028E000088180E0043108F04DC0E02EF12C61E059
:1028F00070E0CE01B8D785E28E9DF0018F9DF00D7E
:102900001124EF5DFC4F8081813009F042C08EEBD5
:102910009DE0D3D7E881F0E0EC56F94F858188231C
:1029200009F444C08BE99DE0C8D715E21E9DF00173
:102930001F9DF00D1124EF5DFC4F80818823F1F085
:1029400083E89DE0BAD7019F8001112462E070E026
:10295000C8018E5D9C4F87D786E79DE0AED762E0C9
:1029600070E0C8018C5D9C4F7ED78DE69DE0A5D7B9
:1029700061E070E0C8018A5D9C4F75D788818F5FE8
:10298000888381E0DF91CF911F910F91FF90EF90AD
:102990000895823019F484EB9DE0BBCF843019F4A4
:1029A0008EEA9DE0B6CF88EA9DE0B3CF8FE89DE048
:1029B000BBCF91E0811190E090939506089591E04E
:1029C000811190E090939606089591E0811190E036
:1029D00090939706089591E0811190E09093980666
:1029E0000895CF93DF930F92CDB7DEB7898390E040
:1029F00021E0611120E0FC01EC56F94F258325E22E
:102A0000289FF001299FF00D1124EF5DFC4F80817C
:102A1000823051F480E69DE050D761E070E0CE0155
:102A200001966DD78981ECDA0F90DF91CF910895EF
:102A3000CF93C82FC15010F4CF91089563DC8AE082
:102A40005ADCF8CFCF93DF93CDB7DEB72C970FB614
:102A5000F894DEBF0FBECDBF9CE0ECEBF2E0DE01F0
:102A6000119601900D929A95E1F78C3080F4E1E097
:102A7000F0E0EC0FFD1FE80FF11D80812C960FB6E2
:102A8000F894DEBF0FBECDBFDF91CF91089580E0F7
:102A9000F5CF1F93CF93DF93CDB7DEB72A970FB64D
:102AA000F894DEBF0FBECDBF182F85EC91E09A875A
:102AB000898788E0E2E6F1E0DE01119601900D924F
:102AC0008A95E1F762E070E0CE0109964DDD1111C3
:102AD00008C086E490E01EDC68E070E0CE0101965C
:102AE00043DD2A960FB6F894DEBF0FBECDBFDF914F
:102AF000CF911F910895CF93DF93CDB7DEB7CF5518
:102B0000D1090FB6F894DEBF0FBECDBF85EC91E0C2
:102B1000A0969FAF8EAFA09789E0EAE6F1E0DE01D4
:102B2000AB5ABF4F01900D928A95E1F783E3E3E73B
:102B3000F1E0DE01119601900D928A95E1F781E2B4
:102B4000E6EAF1E0DE01D49601900D928A95E1F774
:102B500084E690E0DFDBD6DB87E090E0DBDB84E03F
:102B600067DF83E290E0D6DB83E062DF8EE090E017
:102B7000D1DB82E05DDF8EE490E0CCDB82E058DFE9
:102B800084E090E0C7DB83E053DF8BE390E0C2DBBF
:102B900082E04EDF62E070E0CE01825A9F4FE4DCBB
:102BA00084E190E0B7DB69E070E0CE018B5A9F4F83
:102BB000DBDC89E390E0AEDB63E370E0CE010196FD
:102BC000D3DC61E270E0CE01C496CEDC80E061DF50
:102BD00086E490E09FDBC15ADF4F0FB6F894DEBF6A
:102BE0000FBECDBFDF91CF91089525E0FC0120837A
:102BF00087EC91E00895CF93DF9300D00F92CDB78B
:102C0000DEB795EB998390E29A838B8363E070E063
:102C1000CE010196A9DC0F900F900F90DF91CF911C
:102C20000895CF93DF9300D00F92CDB7DEB795EB29
:102C3000998390E39A838B8363E070E0CE010196E1
:102C400093DC0F900F900F90DF91CF910895CF9369
:102C5000DF9300D00F92CDB7DEB795EB998390E16B
:102C60009A838B8363E070E0CE0101967DDC0F9048
:102C70000F900F90DF91CF9108950F931F93CF93F3
:102C8000DF9300D00F92CDB7DEB78A0195EB998321
:102C90006A838B8363E070E0CE01019665DC85EA90
:102CA00089830F770A831F771B8363E070E0CE016F
:102CB00001965ADC0F900F900F90DF91CF911F91EA
:102CC0000F910895AB0160E4D8CFEF92FF920F937C
:102CD0001F93CF93DF930F92CDB7DEB77C018B01AB
:102CE000FC01818189838091FC0172D5882381F167
:102CF00089EC9FE0E2D568E070E0C70100D68FEB79
:102D00009FE0DBD561E070E0CE010196F8D585EB60
:102D10009FE0D3D561E070E0C7010296F0D58BEA61
:102D20009FE0CBD561E070E0C7010396E8D58DE95F
:102D30009FE0C3D562E070E0C7010496E0D58FE85C
:102D40009FE0BBD562E070E0C7010696D8D552D6A9
:102D5000F7018281F8018783F7018381F801808779
:102D6000F70186819781F801948383836581F70158
:102D70008281ABD9F801808F6581F7018381A5D964
:102D8000F801868FF7018481958184D9F801928FAB
:102D9000818FF701868197818F3F9F4731F5F80139
:102DA000158E148EF801808182FF17C0448D558DD9
:102DB00060E6898162DFF801418D528D6CE5898181
:102DC0005CDFF801468D50E06CE6898156DFF80142
:102DD000408D50E064E6898150DF0F90DF91CF9104
:102DE0001F910F91FF90EF900895F80181819281DA
:102DF00023813481821B930B4DD9F801958F848FE9
:102E0000D1CFEF92FF920F931F93CF93DF930F9247
:102E1000CDB7DEB77C018B01FC0181818983809174
:102E2000FC01D6D4882341F180E89FE046D565E0D7
:102E300070E0C70164D587E79FE03FD561E070E0AF
:102E4000CE0101965CD58DE69FE037D561E070E05C
:102E5000C701029654D583E69FE02FD561E070E06C
:102E6000C70103964CD589E59FE027D561E070E066
:102E7000C701049644D5BED5F8018385803180F51D
:102E80008D3080F120918806F70134813203C00132
:102E9000112464E670E00E94A821862F928191118E
:102EA00029C009D9F801928B818BF701838103D95D
:102EB000F801968B858BF801808182FF13C0898190
:102EC000F7019281F801911129C04189528968E482
:102ED000D4DEF8014589568960E58981CEDE02C0DD
:102EE000803129F10F90DF91CF911F910F91FF90C9
:102EF000EF900895E0D8F801948B838BF7018381DC
:102F0000803831F48FE790E0F801908F878BD3CF32
:102F10008195D1D8F801908F878BCDCF4389548983
:102F20006CE4ABDEF8014789508D64E5D6CF209183
:102F30008806F70134813203C001112464E670E091
:102F40000E94A821862F9281911112C0B4D8F80155
:102F5000928B818BF801808182FFC4CF8981F70138
:102F60009281F801911109C04189528968E4B6CF74
:102F7000A2D8F801948B838BEDCF438954896CE4FC
:102F8000ADCFDF92EF92FF920F931F93CF93DF931A
:102F90000F92CDB7DEB77C018B01FC018181898363
:102FA0008091FC0115D4882381F18BE49FE085D4C6
:102FB00067E070E0C701A3D485E49FE07ED461E0C0
:102FC00070E0CE0101969BD488E39FE076D461E067
:102FD00070E0C701029693D48BE29FE06ED461E06B
:102FE00070E0C70103968BD48EE19FE066D461E068
:102FF00070E0C701049683D481E19FE05ED462E073
:1030000070E0C70105967BD4F5D4F7018281F80101
:1030100081878FE790E092A381A381E091E094A360
:1030200083A3F7016581768181E0683EF3E07F0745
:1030300028F46A30710508F04CC08FE6F801878FDC
:10304000F8018385823019F08385833081F5F7019B
:1030500084818052813C08F043C083E0F80183877B
:103060006581F701828131D8D82EF701838187FDF0
:103070008F5F85958D0D1FD8F80192A381A3F7016D
:10308000838187FD8F5F85958D1915D8F80194A3ED
:1030900083A3808182FF0BC041A152A164E7898193
:1030A000ECDDF80143A154A168E78981E6DDF80170
:1030B000808182FF05C0478D50E060E78981DDDDBA
:1030C0000F90DF91CF911F910F91FF90EF90DF90C4
:1030D000089588EE93E00E949421F801678FB0CFA5
:1030E00082E0BCCFEF92FF920F931F93CF93DF93B9
:1030F0000F92CDB7DEB77C018B01FC018181898302
:103100008091FC0165D38823C1F08DEF9EE0D5D37B
:1031100064E070E0C701F3D387EF9EE0CED361E0B7
:1031200070E0CE010196EBD38AEE9EE0C6D362E05A
:1031300070E0C7010296E3D35DD4F7018281F80104
:103140008187F70182819381F801658197FD21C014
:103150000E946510F801838F8FE790E092A381A30E
:10316000F80114A213A2808182FF0BC0438D50E0AE
:1031700064E7898182DDF80141A152A16CE7898170
:103180007CDD0F90DF91CF911F910F91FF90EF9019
:10319000089580950E946510F801838F81E091E089
:1031A000DDCFEF92FF920F931F93CF93DF930F9298
:1031B000CDB7DEB78C017B018091FC0109D3882358
:1031C00019F1F801818189838AED9EE076D364E06C
:1031D00070E0C80194D384ED9EE06FD361E070E0AD
:1031E000CE0101968CD38BEC9EE067D361E070E05A
:1031F000C801029684D382EC9EE05FD361E070E068
:10320000C80103967CD3F6D3F8012281822F022EC7
:10321000000C990B27FF03C0809590959160F701F2
:1032200092A381A3F80183810E945B10F70194A30C
:1032300083A3808182FF0DC041A152A168E7F801FC
:1032400080811BDDF70143A154A164E7F80180816F
:1032500014DD0F90DF91CF911F910F91FF90EF90B0
:103260000895CF92DF92EF92FF920F931F93CF9327
:10327000DF938C01EB01FC0182818B30A0F488305C
:1032800008F0AFC0EE24E394833090F481110FC0B6
:103290008BE190E0DF91CF911F910F91FF90EF9024
:1032A000DF90CF9008958B3099F79881F2CFE12C81
:1032B000F801F180848590E0880F991F9C01220F0E
:1032C000331F222733708F779927822B932B9A8B6A
:1032D000898B838194818F3F9F4709F056C01D8E53
:1032E0001C8ECD80F801D184CD1469F1DD828F81EF
:1032F0006D2D0E946510888F8885F80161850E9478
:1033000065108E8FEE2009F45DC06D8189850E9465
:103310006510182F8E81810F0E945B109AA389A3DC
:103320008E81811B0E945B109CA38BA3888182FFEE
:103330000AC049A15AA164E78F2D9FDC4BA15CA173
:1033400068E78F2D9ADC888182FF43C049895A89BA
:1033500068E48F2D92DC4C8D5D8D60E68F2D8DDCC9
:10336000CD1409F495CF4E8D50E06CE68F2D85DCA1
:10337000488D50E064E68F2D80DCE11089CF4B8DC5
:1033800050E064E78F2D79DC83CF8B819C818F3F68
:103390009F4709F4A4CF29813A818B819C818217B0
:1033A000930758F489819A812B813C81821B930B6E
:1033B0000E944A109D8F8C8F94CF8D859E859D8F06
:1033C0008C8F8FCF8985F80161850E9465108B8F66
:1033D000BACF6BE1CE010A96EDD8888184608883EC
:1033E00057CF88818FE055CFDC01FB019FE7938F9A
:1033F00081E0878F108E128E118E168E158E148E90
:1034000083E282879487108A1786938B84E6848B65
:10341000158A80E1868B8EE4878B11968C918130A2
:1034200019F414A213A2089581E091E094A383A358
:103430000895CF93DF9300D00F92CDB7DEB792EF10
:1034400099838B83962F9295907F68276F708295D2
:103450008F7068278DE06827692B6A8363E070E0CE
:10346000CE01019681D80F900F900F90DF91CF91F0
:103470000895CF93DF93CDB7DEB72C970FB6F894AE
:10348000DEBF0FBECDBF9CE0E9ECF2E0DE0111969D
:1034900001900D929A95E1F78C3080F4E1E0F0E034
:1034A000EC0FFD1FE80FF11D80812C960FB6F894EC
:1034B000DEBF0FBECDBFDF91CF91089580E0F5CF85
:1034C0001F93CF93DF93CDB7DEB72A970FB6F8944B
:1034D000DEBF0FBECDBF182F83EF9DE19A8789878E
:1034E00088E0ECECF1E0DE01119601900D928A95F6
:1034F000E1F762E070E0CE01099636D8111105C0FF
:1035000068E070E0CE0101962FD82A960FB6F894A5
:10351000DEBF0FBECDBFDF91CF911F910895CF9336
:10352000DF93CDB7DEB76A970FB6F894DEBF0FBE54
:10353000CDBF83EF9DE19A8F898F88E1E4EDF1E0C3
:10354000DE01119601900D928A95E1F784E690E0F4
:103550000E948A1162E070E0CE01499605D868E1C8
:1035600070E0CE01019600D880E0AADF84E690E00A
:103570000E948A116A960FB6F894DEBF0FBECDBFC7
:10358000DF91CF91089525E0FC01208387EF91E042
:10359000089562E04ECF63E04CCF61E04ACFCF9315
:1035A000DF9300D000D000D0CDB7DEB791EF998384
:1035B00090E49B838C836D837E83860F8F50870F6F
:1035C00081958F778A8366E070E0CE0101960E9434
:1035D000B41226960FB6F894DEBF0FBECDBFDF91B2
:1035E000CF91089508950895089508950895DC01F0
:1035F0001296EC91E15080E0EB3020F4F0E0E451E1
:10360000FE4F808190E00895DC01FB0180E282871B
:103610008FE78487178611969C9111979830C8F48C
:10362000923040F190E49787808B838B158A148ABF
:10363000868B818F8EE3848F11968C91823069F412
:10364000128A118A8EE69EE1908F878B938F828FEC
:1036500008959850943060F0089580E090E4928B43
:10366000818B85E692E1908F878B84E793E0EECFA4
:103670008EE7808B08959C0183B5816083BD309374
:1036800085002093840081E086BBB09BFECF089527
:103690005E9A81EC9FEFEFDF5E9883E89FEFEBCFC0
:1036A000282F90918006809181069827809182062C
:1036B0009827809183069827203131F480917E06E7
:1036C00030917F0683279827892F82958F708927CD
:1036D000982F969596958927982F969589272B3020
:1036E00019F490917F068927817008951DB880E4B0
:1036F0008EB910BA83EF81BB83E085BD95E09093CE
:103700008100809369008BEC93EFB5DFC1DF8BEC18
:1037100093EFB1DF6EE780E00E940E09B9DF809180
:10372000850680918506813159F480E1B9DF8823CF
:1037300039F083E08093B40680E00E94B70F11C097
:10374000809185068C3059F48BE0AADF882339F00C
:1037500084E08093B40681E00E94B70F02C0E8982D
:10376000D5CFE898F8940895CF938091B406C0E13E
:10377000843009F4CBE06C2F80E00E940E09E898B9
:1037800081110CC080912C068F5F80932C068B30AA
:10379000C0F0F89480E28093D800FFCF10922C06FE
:1037A0008C2F7EDF882369F08091B406843059F431
:1037B00086E0EEE7F6E0ADEAB6E001900D928A957C
:1037C000E1F7CF9108958EE796E0CF910C945408DD
:1037D000982F20910801282381E0291380E0089583
:1037E0009091080191FF16C020912D0630912E0670
:1037F0002115324078F420912D0630912E06A90132
:103800004F5F5F4F50932E0640932D062B54394F38
:10381000F901808308950F931F93CF93DF938B015A
:1038200020910801EC01080F191F211118C0DF9128
:10383000CF911F910F91089580E2D2DFE991E29537
:10384000EF70F0E0EB52FD4F8081CADFFE0131974F
:10385000E081EF70F0E0EB52FD4F8081C1DFC017D7
:10386000D10751F7E4CF40910801442321F06623AA
:1038700011F07727D0CF08951F93CF93DF93209136
:103880000801222361F0EC011991112341F01A3053
:1038900011F48DE0A5DF812FA3DFCE01F4CFDF91FE
:1038A000CF911F91089520910801222329F0E4DF90
:1038B0008DE096DF8AE094CF08951F93CF93DF9336
:1038C00020910801222369F0EC01FE0114911123DB
:1038D00041F01A3011F48DE083DF812F81DF2196D2
:1038E000F4CFDF91CF911F910895209108012223F9
:1038F00029F0E3DF8DE074DF8AE072CF0895409114
:103900000801442341F0662311F0772784DF8DE01E
:1039100067DF8AE065CF0895EF92FF920F931F93C0
:10392000CF93DF930F92CDB7DEB769838A01790118
:1039300020910801222349F09FDF61E070E0CE0171
:10394000019691DFB701C801DADF0F90DF91CF91C7
:103950001F910F91FF90EF900895AF92BF92CF9279
:10396000DF92EF92FF920F931F93CF93DF937B0130
:103970006A01890120910801222389F19EDFE60175
:103980000C0D1D1DC017D10770F08DE029DF8AE0F6
:10399000DF91CF911F910F91FF90EF90DF90CF902B
:1039A000BF90AF901DCFE881F0E0E150F048EE0FFE
:1039B000FF1FEE0DFF1DA080B18061E070E0CE0121
:1039C00052DF6501DD2481E08A1530F4B6016150D3
:1039D0007109CE01019647DFCC0DDD1DD3CFDF91FC
:1039E000CF911F910F91FF90EF90DF90CF90BF90FC
:1039F000AF90089560912D0670912E0661157105A6
:103A0000B9F010922E0610922D0683E08093E90003
:103A100050E040E085EB96E0ADD18091E8008E77F4
:103A20008093E80058D08091E8008E778093E8007A
:103A30000895982F973020F08093E90081E0089551
:103A40009093E900242F762F50E0981731F0709171
:103A5000EC002091ED005091F00021FD02C09F5F2D
:103A6000E9CF3091EB003E7F3093EB003091ED00D9
:103A70003D7F3093ED003091EB0031603093EB00EF
:103A80007093EC002093ED005093F0002091EE0035
:103A900027FDE5CF80E008958091BA0887FF13C025
:103AA0008091E80082FF06C08091E8008B778093C8
:103AB000E80004C08091B9088111F2CF0895809187
:103AC000B9088823D9F38091E80080FFF8CF80916E
:103AD000E8008E77ECCF2091E4003091E50095E688
:103AE000A9012091EC00822F817020FF06C08091F7
:103AF000E80080FF06C080E008952091E80022FDE4
:103B00001AC08091B908882389F0853089F08091A6
:103B1000EB0085FD0FC02091E4003091E5004217D5
:103B20005307F9F29150E1F684E0089582E0089598
:103B300083E0089581E008950F931F93CF93DF935F
:103B400046D04DD0C8EDD0E088818F7788838881BA
:103B50008068888388818F7D888319BC1092B9081A
:103B60001092B5081092B7081092B60800EE10E057
:103B7000F80180818B7F808388818160888342E027
:103B800060E080E056DFE1EEF0E080818E7F8083B0
:103B9000E2EEF0E0808181608083808188608083B4
:103BA000F80180818E7F8083888180618883DF91A6
:103BB000CF911F910F910895E7EDF0E08081816032
:103BC000808384E082BF81E08093B808B5CFE8EDC0
:103BD000F0E080818E7F80831092E2000895109241
:103BE000DA001092E10008951F920F920FB60F9223
:103BF00011242F933F934F935F936F937F938F93F2
:103C00009F93AF93BF93EF93FF938091E10082FF67
:103C10000AC08091E20082FF06C08091E1008B7FA4
:103C20008093E1006ED38091DA0080FF19C080910B
:103C3000D80080FF15C08091DA008E7F8093DA0073
:103C40008091D90080FF51C080E189BD82E189BDAA
:103C500009B400FEFDCF81E08093B9080E94950B66
:103C60008091E10080FF18C08091E20080FF14C0C5
:103C70008091E2008E7F8093E2008091E20080617B
:103C80008093E2008091D80080628093D80019BCB4
:103C900085E08093B90835D38091E10084FF33C07B
:103CA0008091E20084FF2FC080E189BD82E189BD5F
:103CB00009B400FEFDCF8091D8008F7D8093D8009D
:103CC0008091E1008F7E8093E1008091E2008F7E01
:103CD0008093E2008091E20081608093E200809115
:103CE000B508882341F084E00BC019BC1092B908D4
:103CF0000E94970BB5CF8091E30087FDF4CF81E060
:103D00008093B908FED28091E10083FF22C08091A8
:103D1000E20083FF1EC08091E100877F8093E10075
:103D200082E08093B9081092B5088091E1008E7FFF
:103D30008093E1008091E2008E7F8093E200809189
:103D4000E20080618093E20042E060E080E071DEAA
:103D5000D8D2FF91EF91BF91AF919F918F917F91B9
:103D60006F915F914F913F912F910F900FBE0F90E8
:103D70001F901895AF92BF92CF92DF92FF920F9350
:103D80001F93CF93DF936C01EB018A01A4DEF82E21
:103D9000811124C00115110539F0F801808191814C
:103DA000C81BD90BC80ED91EB12CA12C2097B1F07D
:103DB0008091E80085FD22C08091E8008E77809395
:103DC000E800A0D201151105A1F0F80180819181D0
:103DD000A80EB91EB182A08285E0F82E8F2DDF914A
:103DE000CF911F910F91FF90DF90CF90BF90AF9038
:103DF000089571DE8823D1F2F82EF0CFF60181917B
:103E00006F018093F1002197FFEFAF1ABF0ACECF69
:103E1000AF92BF92CF92DF92FF920F931F93CF93F7
:103E2000DF936C01EB018A0156DEF82E811124C06C
:103E30000115110539F0F80180819181C81BD90B5A
:103E4000C80ED91EB12CA12C2097B1F08091E800AA
:103E500085FD22C08091E8008B778093E80052D2E4
:103E600001151105A1F0F80180819181A80EB91EFC
:103E7000B182A08285E0F82E8F2DDF91CF911F9126
:103E80000F91FF90DF90CF90BF90AF90089523DE09
:103E90008823D1F2F82EF0CF8091F100F6018193C2
:103EA0006F012197FFEFAF1ABF0ACECFFC01CB0104
:103EB0002091C0083091C1082617370790F000976D
:103EC00029F42091E8002E772093E80040E0009745
:103ED00051F4411108C08091E80082FF31C080E0B8
:103EE0000895C901F3CF2091B908222399F1253013
:103EF00069F12091E80023FD2BC02091E80022FD0C
:103F0000EACF2091E80020FFE2CF3091F30020912A
:103F1000F200009719F02830310558F041E02830C0
:103F2000310509F040E02091E8002E772093E80069
:103F3000CECF41914093F10001972F5F3F4FE9CFE2
:103F40008091B908882331F0853029F683E00895FF
:103F500081E0089582E00895FC01CB01009729F4E7
:103F60002091E8002B772093E800009731F48091AE
:103F7000E80080FF1CC080E008952091B90822234A
:103F800001F12530D1F02091E80023FD18C02091E7
:103F9000E80022FFEACF3091F3002091F200232BBA
:103FA000F9F22091F10021930197A9F7D9CF8091DF
:103FB000B908882331F08530D1F683E0089581E097
:103FC000089582E00895FC01CB012091C008309152
:103FD000C1082617370790F0009729F42091E800D0
:103FE0002E772093E80040E0009751F4411108C07B
:103FF0008091E80082FF32C080E00895C901F3CFCC
:104000002091B9082223A1F1253071F12091E80017
:1040100023FD2CC02091E80022FDEACF2091E8008A
:1040200020FFE2CF3091F3002091F200009719F0C9
:104030002830310558F041E02830310509F040E0E2
:104040002091E8002E772093E800CECF4491409352
:10405000F100319601972F5F3F4FE8CF8091B9086B
:10406000882331F0853021F683E0089581E00895BA
:1040700082E008950F931F93CF93DF93CDB7DEB700
:10408000AA970FB6F894DEBF0FBECDBF8AEB98E0BB
:10409000FC0101962091F100208328E0823C9207E8
:1040A000B9F70E94CB0B8091E80083FF11C180918A
:1040B000BA089091BB089A3008F00AC1E92FF0E0E5
:1040C000E155FB4D58C1803881F0823809F000C1BC
:1040D0008091BE088F708093E9008091EB0085FB92
:1040E000882780F91092E90006C08091B608909167
:1040F000B708911182609091E800977F9093E80053
:104100008093F1001092F1008091E8008E77DDC07D
:10411000882309F4CBC0823009F0DAC08091BC0852
:104120008111CEC08091BE088F7009F4D1C08093F8
:10413000E9002091EB0020FFC3C0933031F480915F
:10414000EB0080628093EB00BBC09091EB0090612C
:104150009093EB0021E030E001C0220F8A95EAF74E
:104160002093EA001092EA008091EB008860EACF89
:104170008111AEC01091BC081F770FB7F8948091E1
:10418000E800877F8093E80087DC8091E80080FF6B
:10419000FCCF8091E3008078812B8093E3008068DE
:1041A0008093E30082E0111183E08093B9080FBF90
:1041B0008FC08058823008F08BC08091BC089091ED
:1041C000BD088C3D23E0920799F583E08A838AE25B
:1041D00089834FB7F894DE01139620E03EE051E268
:1041E000E32FF0E050935700E49120FF03C0E295E5
:1041F000EF703F5FEF708E2F90E0EA30B8F0C79617
:104200008D939D932F5F243159F74FBF8091E80024
:10421000877F8093E8006AE270E0CE01019646DE77
:104220008091E8008B778093E80052C0C096E8CF79
:10423000AE014F5F5F4F6091BE080E94910ABC01C2
:10424000892B09F445C08091E800877F8093E800BE
:1042500089819A81B8DEE4CF8038D1F58091E80079
:10426000877F8093E8008091B5088093F1004CCF60
:1042700081112EC09091BC08923050F58091E800D9
:10428000877F8093E8009093B50806DC8091B5089D
:10429000882311F084E005C08091E30087FDFACF08
:1042A00081E08093B9080E94990B12C08091BC08EC
:1042B000813071F481E0933009F080E08093B70899
:1042C0001092E9008091E800877F8093E800E4DBAA
:1042D0008091E80083FF0AC08091EB0080628093A8
:1042E000EB008091E800877F8093E800AA960FB6E4
:1042F000F894DEBF0FBECDBFDF91CF911F910F911C
:1043000008950895CF938091B908882359F0C091FA
:10431000E900CF701092E9008091E80083FDAADEE9
:10432000C093E900CF910895AA1BBB1B51E107C0C0
:10433000AA1FBB1FA617B70710F0A61BB70B881F35
:10434000991F5A95A9F780959095BC01CD010895C4
:1043500097FB072E16F4009406D077FD08D0E4DF13
:1043600007FC05D03EF4909581959F4F0895709578
:1043700061957F4F0895EE0FFF1F0590F491E02D9A
:104380000994AEE0B0E0E6ECF1E2B0C20D891E891E
:1043900086E08C831A8309838FEF9FE79E838D834A
:1043A000AE01475E5F4F6F89788DCE01019609D0CF
:1043B0002F813885020F131FF80110822E96E4E03A
:1043C000B1C2AFE0B0E0E6EEF1E282C27C013B01B7
:1043D0008A01DC0117961C921E92169713968C91F7
:1043E00081FFB5C19AE0292EFE0131964F01D70118
:1043F00013969C91F30193FD859193FF81913F0169
:10440000882309F43EC1853239F493FD859193FFE9
:1044100081913F01853221F4B70190E0B1D1E7CF1E
:10442000B12C412C512CBFE1B51538F08B3209F17C
:1044300088F4803201F1833221F157FC3AC020ED3B
:10444000280F2A3040F556FE1FC0B29C200D1124C3
:10445000B22E06C08D3291F0803379F7689450F80F
:10446000F30193FD859193FF81913F018111DBCF92
:1044700020C0689451F8689452F8F2CF689453F8C9
:10448000EFCF689454F8ECCF429C200D1124422EBB
:10449000689455F8E5CF8E3229F456FCF2C0689442
:1044A00056F8DECF8C3619F4689457F8D9CF883691
:1044B000B9F2982F9F7D95549330B8F0833691F1DF
:1044C0008337B1F1833509F056C0D801CD90DD9026
:1044D0008D016B2D70E056FC02C06FEF7FEFC601BF
:1044E00039D15C01689457F80AC00C5F1F4FEFE3A5
:1044F000E983AA24A394B12C6401E89457F853FCEF
:1045000004C04A141B0409F008F5342CA114B104AA
:1045100019F5332009F46BCFB70180E290E030D178
:104520003A94F7CFD8018C9189830E5F1F4FE1CF6A
:10453000F801C190D1908F016B2D70E056FC02C044
:104540006FEF7FEFC60111D15C01D7CFB70180E2D9
:1045500090E016D14A94D5CFF60157FC859157FECD
:1045600081916F01B70190E00BD131103A94B1E025
:10457000AB1AB108CBCF843619F0893609F070C078
:10458000F80157FE66C061917191819191918F01FF
:10459000E52DEF76DE2E97FF09C0909580957095FA
:1045A00061957F4F8F4F9F4F6894D7F82AE030E096
:1045B000A40116D1C82EC818AC2C5D2CD6FE0CC098
:1045C000E89450F8CB1440F4D4FE05C0D2FC03C0EC
:1045D0005D2D5E7E552EAB2C54FE93C0FE01EC0D7E
:1045E000F11D8081803309F085C0652D697E562ECE
:1045F000752D7870372E53FC92C050FE8CC0BC2CA9
:10460000A41418F44C0CB42CBA1854FE8EC0B70184
:1046100080E390E0B5D052FE08C088E790E051FEFC
:1046200002C088E590E0B701ABD0CB1408F489C094
:10463000CA94D12C8FEFC81AD80AC80CD91CD6013D
:104640008E916D01B70190E09BD08C149D04B9F759
:1046500060CF61917191072E000C880B990B97CF59
:10466000D52CE894D4F82AE030E0853731F1F52DE7
:10467000F97FDF2E8037A1F050F48835A1F08F3616
:10468000D1F0F701868197812F96E2E13DC188370D
:10469000C1F7D4FE02C06894D2F820E130E00DC02A
:1046A0006894D4F8F6CF54FE03C02F2F2660D22E84
:1046B00020E132E002C028E030E0F801D7FE14C06B
:1046C00041915191619171914C875D876E877F8790
:1046D0008F01A4016C857D858E859F8581D0C82E34
:1046E000C818E894D7F868CF81919191AC0170E037
:1046F00060E0EACF52FC02C0A3947ACFA394A394C3
:1047000077CF852D867809F473CFF6CFB70180E295
:1047100090E036D0A394A414C8F3312C76CF342C77
:104720003A18A41408F471CFF8CF852D867809F4CF
:104730007CCF8BE251FE80E257FC8DE2B70190E026
:1047400073CFB70180E390E01BD0BA946ECF8FEFA8
:104750009FEF9ACFFC010590615070400110D8F78F
:10476000809590958E0F9F1F0895FC0161507040B9
:1047700001900110D8F7809590958E0F9F1F089596
:104780000F931F93CF93DF93182F092FEB018B818A
:1047900081FD09C01FEF0FEF812F902FDF91CF9187
:1047A0001F910F91089582FF14C02E813F818C814B
:1047B0009D81281739073CF4E881F981CF010196E2
:1047C0009983888310838E819F8101969F838E8336
:1047D000E3CFE885F985812F0995892BA1F3DACFFD
:1047E000FA01AA27283051F1203181F1E8946F9322
:1047F0006E7F6E5F7F4F8F4F9F4FAF4FB1E03ED0C8
:10480000B4E03CD0670F781F891F9A1FA11D680F65
:10481000791F8A1F911DA11D6A0F711D811D911D98
:10482000A11D20D009F468943F912AE0269F11240D
:104830003019305D3193DEF6CF010895462F477071
:10484000405D4193B3E00FD0C9F7F6CF462F4F70CC
:10485000405D4A3318F0495D31FD4052419302D02A
:10486000A9F7EACFB4E0A6959795879577956795D0
:10487000BA95C9F700976105710508959B01AC01D0
:104880000A2E06945795479537952795BA95C9F7F7
:10489000620F731F841F951FA01D0895F999FECF05
:1048A00092BD81BDF89A992780B50895262FF99970
:1048B000FECF92BD81BDF89A019700B4021639F07F
:1048C0001FBA20BD0FB6F894FA9AF99A0FBE089550
:1048D0002F923F924F925F926F927F928F929F9210
:1048E000AF92BF92CF92DF92EF92FF920F931F93FE
:1048F000CF93DF93CDB7DEB7CA1BDB0B0FB6F894AF
:10490000DEBF0FBECDBF09942A88398848885F84EE
:104910006E847D848C849B84AA84B984C884DF805F
:10492000EE80FD800C811B81AA81B981CE0FD11D43
:104930000FB6F894DEBF0FBECDBFED010895F89419
:10494000FFCF0014061416142414321440144E140D
:1049500051140214541457145A145D146014632033
:104960008820682188206821B820D92068212C213E
:024970003821EC
:10497200000000000000080202FF0E00080005000F
:104982000700040004000F000300000004000200FE
:104992000200020005007B15F51549152215FB15CD
:1049A200111627166216F41965160117C117721827
:1049B200D11831198F1AC31A601A391AC91ACB1AA7
:1049C200CD1ACF1A041BF21AF31AF41AF51AF61AB0
:1049D200F71AB57C7FA57F00C506F000010A011019
:1049E200056BF7B5407FA57257B5447FA53C43B52B
:1049F200487FA57E00B54C7FA50400B5507FA50277
:104A020000B5547FA50200B5587FA5007EB55C7F36
:104A1200A53C00B5607FA51465B5647FA57E6BB526
:104A2200687FA53600B56C7FA52800B5707FA566A6
:104A32004CB5747FA57E01F000010A01F11040001F
:104A42007F00F36AF10E4301007DF17E04013E4EC8
:104A5200F11C45013E2FF10B46017D000F1313138C
:104A620013131307070707F000010A1504020100D8
:104A72004765745265706F72740053657452657045
:104A82006F72740046464220737472656E67746872
:104A920020726174696F3A20256400536574204363
:104AA2007573746F6D20466F726365204461746123
:104AB2000053657420446F776E6C6F616420466F9B
:104AC2007263652053616D706C6500536574204399
:104AD2007573746F6D20466F726365005573622043
:104AE2003C3D0044697361626C6520416374756189
:104AF200746F727300456E61626C652041637475F8
:104B020061746F72730053746F7020416C6C204536
:104B120066666563747300526573657400506175EF
:104B2200736500436F6E74696E7565001206050247
:104B3200080A0B0D0E0F10010006050302040505FD
:104B420008090A0B003031323334353637383941EF
:064B520042434445460009
:00000001FF
