:1000000016C7000031C700002EC700002CC7000033
:100010002AC7000028C7000026C7000024C7000028
:1000200022C7000020C700000C943C1A1CC7000027
:100030001AC7000018C7000016C7000014C7000048
:1000400012C7000010C700000EC700000CC7000058
:100050000AC7000008C7000006C7000004C7000068
:1000600002C7000000C70000FEC60000FCC600007A
:10007000FAC600000C947C08F6C60000F4C6000026
:10008000F2C60000F0C60000EEC60000ECC600009C
:10009000EAC60000E8C60000E6C60000E4C60000AC
:1000A000E2C60000E0C60000DEC60000050109044B
:1000B000A10185010901A1000930093109321600A9
:1000C000FE26FF01350046FF0395037510810209E6
:1000D000351500253F3500452E95017506810275C1
:1000E0000295018101650009330934150025FF459A
:1000F000FF7508750895028102C009361580257FB5
:1001000045FF750895018102050209BB15C0253F11
:10011000457F750895018102050919012908150017
:1001200025014501750195088102190929107501FC
:100130009508810205010939950175041500250707
:10014000463B0165148142750495018101550065A6
:1001500000050F0992A1028502099F09A009A409BF
:10016000A509A615002501350045017501950581F4
:100170000295038103099415002501350045017599
:1001800001950181020922150125283501452875AF
:100190000795018102C00921A102850109221501EB
:1001A0002528350145287508950191020925A102E8
:1001B0000926092709300931093209330934094070
:1001C0000941094209430928250C15013501450C4F
:1001D000750895019100C009500954095115002670
:1001E000FF7F350046FF7F66031055FD75109503B0
:1001F000910255006600000952150026FF003500E7
:1002000046102775089501910209531501250835F7
:100210000145087508950191020955A102050109DA
:1002200030093115002501750195029102C0050FB5
:10023000095695019102950591030957A1020B01F9
:10024000000A000B02000A0066140055FE15002685
:10025000B400350047A08C000066000075089502C8
:1002600091025500660000C0050F66031055FD158C
:100270000026FF7F350046FF7F7510950166000060
:100280005500C0050F095AA1028502092215012552
:100290002835014528750895019102095B095D150E
:1002A0000026FF00350046102795029102095C09DF
:1002B0005E66031055FD26FF7F46FF7F7510910295
:1002C00045006600005500C0095FA10285030922B0
:1002D0001501252835014528750895019102092346
:1002E0001500250135004501750495019102095855
:1002F000A1020B01000A000B02000A007502950220
:100300009102C01580257F36F0D846102709607508
:10031000089501910236F0D84610270961950191A0
:1003200002150026FF003500461027096309647591
:100330000895024610279501C0096EA1028504099F
:1003400022150125283501452875089501910209D6
:1003500070150026FF00350046102775089501919D
:1003600002096F1580257F36F0D846102795019138
:1003700002097166140055FE150026FF003500477E
:10038000A08C00009102097226FF7F46FF7F660362
:100390001055FD7510950191026600005500C009C9
:1003A00073A1028505092215012528350145287507
:1003B000089501910209701601FF26FF0036F0D85A
:1003C000461027751095019102C00974A102850697
:1003D0000922150125283501452875089501910246
:1003E000097509761580257F36F0D84610277508DF
:1003F00095029102C00968A102850709221501250D
:100400002835014528750895019102096C150026CB
:1004100010273500461027751095019102096915BE
:1004200081257F350046FF007508950C920201C0BA
:100430000966A10285080501093009311581257F6A
:10044000350046FF00750895029102C0050F097737
:10045000A102850A092215012528350145287508BC
:10046000950191020978A1020979097A097B1501A0
:100470002503750895019100C0097C150026FF0031
:10048000350046FF009102C00990A102850B0922A8
:100490002528150135014528750895019102C009E7
:1004A00096A102850C099709980999099A099B094F
:1004B0009C15012506750895019100C0097DA102D2
:1004C000850D097E150026FF0035004610277508AA
:1004D00095019102C0096BA102850E092215012523
:1004E0002835014528750895019102096D150026EA
:1004F000FF00350046FF007508950191020951661D
:10050000031055FD150026FF7F350046FF7F75104F
:10051000950191025500660000C009ABA102850556
:100520000925A102092609270930093109320933B1
:10053000093409400941094209430928250C1501DC
:100540003501450C75089501B100C00501093B1541
:100550000026FF01350046FF01750A9501B10275BD
:1005600006B101C0050F0989A102850609222528C7
:1005700015013501452875089501B102098BA102C5
:10058000098C098D098E2503150135014503750870
:100590009501B100C009AC150027FFFF0000350030
:1005A00047FFFF000075109501B100C0097FA1024F
:1005B00085070980751095011500350027FFFF009C
:1005C0000047FFFF0000B102098326FF0046FF003D
:1005D00075089501B10209A909AA750195021500CE
:1005E000250135004501B10275069501B103C0C072
:1005F00005010904A10185010904A100093009319F
:10060000093216000026FF03350046FF03950375E7
:1006100010810209351500253F3500452E950175DD
:1006200006810275029501810165000933093415BF
:100630000025FF45FF7508750895028102C009363F
:100640001580257F45FF750895018102050209BBCC
:100650001500253F453F75089501810205091901DF
:100660002908150025014501750195088102190920
:100670002910750195088102050109399501750454
:1006800015002507463B01651481427504950181DB
:100690000155006500050F0992A1028502099F0915
:1006A000A009A409A509A615002501350045017575
:1006B00001950581029503810309941500250135F3
:1006C0000045017501950181020922150125283592
:1006D000014528750795018102C00921A102850104
:1006E0000922150125283501452875089501910233
:1006F0000925A102092609270930093109320933E0
:10070000093409400941094209430928250C15010A
:100710003501450C750895019100C009500954092F
:1007200051150026FF7F350046FF7F66031055FDFB
:1007300075109503910255006600000952150026B8
:10074000FF003500461027750895019102095315E1
:10075000012508350145087508950191020955A143
:100760000205010930093115002501750195029135
:1007700002C0050F0956950191029505910309578D
:10078000A1020B01000A000B02000A0066140055CA
:10079000FE150026B400350047A08C00006600005E
:1007A0007508950291025500660000C0050F6603AA
:1007B0001055FD150026FF7F350046FF7F7510950B
:1007C000016600005500C0050F095AA10285020903
:1007D0002215012528350145287508950191020942
:1007E0005B095D150026FF00350046102795029134
:1007F00002095C095E66031055FD26FF7F46FF7FF8
:100800007510910245006600005500C0095FA10205
:10081000850309221501252835014528750895010C
:100820009102092315002501350045017504950144
:1008300091020958A1020B01000A000B02000A00F4
:10084000750295029102C01580257F36F0D84610BA
:1008500027096075089501910236F0D846102709DE
:100860006195019102150026FF0035004610270909
:10087000630964750895024610279501C0096EA1A9
:10088000028504092215012528350145287508959A
:100890000191020970150026FF00350046102775EA
:1008A0000895019102096F1580257F36F0D8461012
:1008B0002795019102097166140055FE150026FF67
:1008C00000350047A08C00009102097226FF7F4688
:1008D000FF7F66031055FD751095019102660000BB
:1008E0005500C00973A10285050922150125283587
:1008F00001452875089501910209701601FF26FF30
:100900000036F0D8461027751095019102C0097481
:10091000A1028506092215012528350145287508FB
:1009200095019102097509761580257F36F0D84624
:100930001027750895029102C00968A10285070970
:1009400022150125283501452875089501910209D0
:100950006C1500261027350046102775109501915B
:100960000209691581257F350046FF007508950C41
:10097000920201C00966A10285080501093009310A
:100980001581257F350046FF00750895029102C04C
:10099000050F0977A102850A0922150125283501CD
:1009A00045287508950191020978A1020979097A0B
:1009B000097B15012503750895019100C0097C1577
:1009C0000026FF00350046FF009102C00990A102F9
:1009D000850B092225281501350145287508950143
:1009E0009102C00996A102850C09970998099909F5
:1009F0009A099B099C15012506750895019100C06F
:100A0000097DA102850D097E150026FF00350046EF
:100A10001027750895019102C0096BA102850E0986
:100A200022150125283501452875089501910209EF
:100A30006D150026FF00350046FF007508950191F1
:100A400002095166031055FD150026FF7F3500464B
:100A5000FF7F7510950191025500660000C009AB3B
:100A6000A10285050925A1020926092709300931B6
:100A70000932093309340940094109420943092867
:100A8000250C15013501450C75089501B100C0050F
:100A900001093B150026FF01350046FF01750A9547
:100AA00001B1027506B101C0050F0989A1028506D1
:100AB0000922252815013501452875089501B1023F
:100AC000098BA102098C098D098E250315013501B9
:100AD000450375089501B100C009AC150027FFFF5B
:100AE0000000350047FFFF000075109501B100C000
:100AF000097FA10285070980751095011500350051
:100B000027FFFF000047FFFF0000B102098326FF17
:100B10000046FF0075089501B10209A909AA7501EF
:100B200095021500250135004501B10275069501B4
:100B3000B103C0C012011001EF020108EB034E2007
:100B400001000102000112011001EF020108EB0394
:100B5000562001000102000109026600030100C0E5
:100B60003209040000020300000009211101000104
:100B700022440507050203400001070581034000E8
:100B800001080B0102020201000904010001020236
:100B900001000524001001042402060524060102B8
:100BA000070585030800FF09040200020A0000008F
:100BB0000705040210000107058302100001040369
:100BC000090418034400650061006E002000430022
:100BD00061006D00650072006100000026034C009A
:100BE00055004600410020004A006F007900730064
:100BF0007400690063006B00200077004600460027
:100C00004200000020034C00550046004100200037
:100C100057006800650065006C0020007700460002
:100C20004600420000002053696E657320646973BA
:100C300061626C65640A0020547269616E676C655C
:100C4000732064697361626C65640A0020436F6E8F
:100C50007374616E74732064697361626C65640A95
:100C60000020537072696E67732064697361626CEF
:100C700065640A00456666656374733A0A0020205D
:100C80003D20536574436F6E74726F6C4C696E6572
:100C900053746174650020203D205365744C696E67
:100CA00065456E636F64696E670020203D2047656F
:100CB000744C696E65456E636F64696E670043745A
:100CC000726C5265712876616C2C6964782C72653F
:100CD00071293A0053746F70206D616E75616C3AC2
:100CE000000A20206761696E3D000A202066616469
:100CF0006554696D653D0020206475726174696F8B
:100D00006E3D002028456E61626C6564290A0020F2
:100D10002844697361626C6564290A002046726523
:100D200065002053656E740020506C6179696E67B0
:100D30000A0020416C6C6F636174656400203D3E65
:100D4000204D6964693A00446576696365204761AE
:100D5000696E3A20004F746865722000426C6F63C0
:100D60006B20467265653A20002053746F70002036
:100D70005374617274536F6C6F002053746172749A
:100D8000002020656E6420203D0020207374617275
:100D9000743D00202069643D005365742052616DEC
:100DA0007020466F7263653A002020706572696F2B
:100DB000642020203D002020706861736520202081
:100DC000203D0020206F66667365742020203D0062
:100DD00020206D61676E69747564653D002020692F
:100DE000643D0053657420506572696F6469633AAD
:100DF000004765745265706F7274205049442050EA
:100E00006F6F6C20466561747572653A0A20203DEB
:100E10003E205573623A00437265617465204E65E9
:100E200077204566666563743A0A20200000112425
:100E30001FBECFEFDAE0DEBFCDBF13E0A0E0B1E030
:100E4000EAE3F0E402C005900D92A232B107D9F7AF
:100E500016E0A2E2B3E001C01D92A53CB107E1F7A4
:100E6000AFD60C941B20CCC85F935FB75F9357EE4F
:100E700056BD4F93AF93BF93B6E0A09188065091B3
:100E80008906452F53955093890653B15295507E4C
:100E9000477069F04530B9F0423069F04330F1F005
:100EA0004630E9F04130E1F04430D9F01BC05295B2
:100EB00056955E931AC0550F4C91542B5C93552751
:100EC000551F5E9312C057FB550F550F4C91542B75
:100ED0005C935527551F51F95E9307C0569556955B
:100EE000569556954C91542B5C93A0938806BF91D0
:100EF000AF914F915F915FBF5F911895DC0154E016
:100F0000A50F5C91509550FB5095A1503C913695A2
:100F100057955093B00642E0340F33705C91A15066
:100F20004C91469557955C7F532B5093B10638E012
:100F3000430F4F70A2505C91550F550F5051507F89
:100F4000542B5093B2063C9142E0340F3370A3957A
:100F50004C91407F342B3295330F330F54E0A50F63
:100F60005C91509556953795569537953093B306C5
:100F700056F9A3504C9145FB57F95093B406A15034
:100F80005C9138E0530F5F70440F551F440F551F9D
:100F90005093B5060895DC0145E0A40F5C91A3953C
:100FA000A3953C913873330F3295550F369557956D
:100FB0004EEF340F33705093B0064C914770A350EE
:100FC0005C91550F469557952EEF420F4370550F84
:100FD000441F550F441F532B5093B106342FA2507A
:100FE0005C91A3954C914871550F440F42954695DD
:100FF0005795409540FB5295452F407F432B40939A
:10100000B2065F7054F9352FA3505C91507747E0DA
:10101000A40F4C9146FB57F9505157FB550F532BDA
:101020005093B306332730F9AA955C91A3504C91A5
:1010300046FB57F950954427550F441F532B5093A7
:10104000B406342FA2505C91A395A3954C914770A0
:10105000550F469557952EEF420F437057FB550F8E
:10106000532B5093B506440F40F94093B6060895AC
:10107000482F362F8827F894E09AE89A2227189B61
:101080002FEF51E053BD5CE956BDA89A2093890625
:1010900058E85093880678942498259850E05A95FB
:1010A000F1F7249A259A50918906521719F4A89BB2
:1010B000FACF089550918906521B250F231728F463
:1010C00044238AF7450F7AF3E7CF83950895D0DF5D
:1010D000882371F050918906563151F4F8945527C0
:1010E00050938906509188065395509388067894BA
:1010F000089581E090E008951F920F920FB60F922D
:1011000011248F9381E0809322038F910F900FBE63
:101110000F901F901895CF93DF93EB0183E085BD6F
:101120000E941119809122038823C9F11092220391
:1011300080912303813069F0813028F0843089F078
:101140008530C9F414C0809179008093240381E034
:1011500005C0809179008093250384E08093230368
:101160000CC0809179008093260385E0F7CF8091B1
:101170007900809327031092230380917C00887F5D
:1011800080937C0090917C00809123038770892B51
:1011900080937C0080917A00806480937A0081E063
:1011A00088838091B7068430A1F52091B3062295FB
:1011B00026952695237030E08091B20690E0880F46
:1011C000991F880F991F282B392B8FEF90E0282724
:1011D00039273D872C878091B40690E0837090700A
:1011E000982F88272091B506820F911D9A838983B5
:1011F0008091B40690E08C7F9070880F991F880FC3
:10120000991F9C838B838091B30680958F738B8706
:1012100071C08091B10690E083709070382F2227C2
:101220008091B006280F311D3A8329838091B10641
:1012300081FF03C03C6F3A8329838091B206282F37
:1012400030E02F70307046E0220F331F4A95E1F7EF
:101250008091B10686958695280F311D3C832B839E
:101260008091B20683FF03C03C6F3C832B832091A7
:10127000B30622952695269523708091B40690E0BA
:101280008F779070880F991F880F991F820F911D7B
:101290009D878C878091B20682958F708E87809112
:1012A000B3068F7380528F839091B5069F73990F09
:1012B0008091B406881F8827881F980F9B8780918C
:1012C000B50685FF02C0906C9B871E821D828091AF
:1012D00027032091260390E0821B910962E070E0D1
:1012E0000E94012060586A87809125038887809139
:1012F0002403898781E090E0DF91CF9108950E94D7
:10130000D51886E080938A0683E08093810085E08B
:1013100085BD26E02150822F90E0FC01E055F94F79
:10132000E081DC01A457B94F8C918E13EC932223FA
:1013300089F788EE93E076D50E94F51510BA809172
:101340007A00876080937A0080917C00806480932B
:101350007C0080917C00806280937C0080917A0088
:10136000806880937A0080917A00886080937A0008
:1013700080917A00806480937A000895CF92DF9202
:10138000EF92FF920F931F93DF93CF9300D0CDB7CF
:10139000DEB7282F6A836A01933049F1943030F424
:1013A0009130A9F0923009F06CC00AC0913209F472
:1013B0003DC0923209F43FC0943009F062C04BC086
:1013C000F8E5EF2EFBE0FF2E06E610E05EC0809110
:1013D000B706843029F0E4E3EE2EEBE0FE2E04C0E5
:1013E00076E4E72E7BE0F72E02E110E04EC081307C
:1013F00051F0813020F0823009F043C008C0EEEB9C
:10140000FBE084910FC0E2ECFBE084910BC0809183
:10141000B706843021F4E4E0FCE0849103C0ECEDF5
:10142000FBE08491082F10E07F012FC06AE6E62ED2
:101430006BE0F62E23C08091B706843029F05CEA79
:10144000E52E50E0F52E04C040EFE42E45E0F42EEA
:1014500004E415E01AC08A81882329F431E6E32EDA
:101460003BE0F32E0BC0813029F097EAE92E9BE098
:10147000F92E04C089E8E82E8BE0F82E09E010E090
:1014800004C0EE24FF2400E010E02983CE01019681
:1014900061E070E00E944B19CE01029661E070E0BD
:1014A0000E944C19F601F182E082C8010F900F9062
:1014B000CF91DF911F910F91FF90EF90DF90CF9030
:1014C00008955E9A08955E980895AF92BF92CF9264
:1014D000DF92EF92FF920F931F93DF93CF93CDB7DD
:1014E000DEB7A1970FB6F894DEBF0FBECDBF109147
:1014F000BC06143009F020C10E9457191093E9006E
:101500008091E80082FF18C15E9A84EF91E020E9A3
:1015100031E0F9013197F1F70197D9F75E9884EF3F
:1015200091E020E931E0F9013197F1F70197D9F71E
:10153000CC24DD2482E0A82EB12CAC0EBD1E0EC042
:101540000894C11CD11CC80161E070E040E050E08B
:101550000E94161C0F5F1F4F853091F32091F300FE
:101560008091F200F22EEE2490E08E299F29892BA3
:1015700041F080E2C816D10420F485010C0D1D1D38
:10158000DFCF8091E8008B778093E80019828A8111
:10159000843409F4CAC0853440F5883209F4A3C004
:1015A000893298F4833209F494C0843238F4813259
:1015B00009F48BC0823209F0BFC089C0853209F4BA
:1015C0008CC0863209F0B8C08AC08A3350F48133A7
:1015D00008F078C0893209F488C08F3209F0ACC0B5
:1015E00080C0833409F0A8C065C0843609F496C071
:1015F000853698F4843509F462C0853538F48D3425
:1016000009F47DC0833509F097C04FC0853509F4D2
:1016100080C0833609F090C04BC0833709F443C0C3
:10162000843730F48C3671F08D3609F085C062C095
:10163000853709F469C0853708F43FC0843A09F05A
:101640007BC049C084E79CE00E9449198E010F5F6E
:101650001F4F02C00E945719C8010E949415882389
:10166000C9F780919806882321F081E69CE00E94CA
:10167000491980919906882321F08CE49CE00E940E
:10168000491980919A06882321F087E39CE00E9403
:10169000491980919B06882309F44EC086E29CE09C
:1016A0000E94491949C080E001C081E0E4D444C0EF
:1016B00080E001C081E0E6D43FC080E001C081E06D
:1016C000E8D43AC0805360E012C081E00FC082E0ED
:1016D0000DC083E00BC084E009C085E007C086E050
:1016E00005C087E003C088E001C089E061E00E9496
:1016F000341422C09091200380911D0313C0809167
:10170000200390911D0315C09091200380911E032A
:1017100009C08091200390911E030BC0909120037B
:1017200080911F038095892305C0809120039091AB
:101730001F03892B80932003A1960FB6F894DEBF78
:101740000FBECDBFCF91DF911F910F91FF90EF9012
:10175000DF90CF90BF90AF9008956F927F928F925D
:101760009F92AF92BF92DF92EF92FF920F931F93DF
:10177000DF93CF93CDB7DEB7C054D0400FB6F89407
:10178000DEBF0FBECDBF8091BC06843009F084C09F
:1017900081E08093E9008091E80080FF13C0809190
:1017A00000018E010F5F1F4FB801B5DCC8016FE06B
:1017B00070E040E050E00E94681C8091E8008E7765
:1017C0008093E80082E08093E9008091E80082FF46
:1017D00063C05E9ADD245E010894A11CB11C32E056
:1017E000632E712C6C0E7D1E20EA822E2FE0922E2D
:1017F0003FC0C50161E070E040E050E00E94161C6F
:101800008530B9F3D394E981F0E0EE0FFF1FED537B
:10181000FE4F0081118101501040C8018D0D911DB6
:101820008034910598F020E931E05E9888EE93E0ED
:10183000F9013197F1F70197D9F75E9A88EE93E0B5
:10184000F9013197F1F70197D9F7EFCFC301B8014B
:1018500040E050E00E94161C8530C1F3D00E0F5FAF
:101860001F4FC501B8010E944218C4010197F1F74A
:101870002091F3008091F200F22EEE2490E08E2968
:101880009F29892B21F08FE38D1508F0B2CF80912D
:10189000E8008B778093E800C05CDF4F0FB6F894C8
:1018A000DEBF0FBECDBFCF91DF911F910F91FF9093
:1018B000EF90DF90BF90AF909F908F907F906F9050
:1018C0000895EF92FF920F931F93DF93CF93CDB7BD
:1018D000DEB764970FB6F894DEBF0FBECDBF809120
:1018E000C1069091C206019719F0EE24FF2404C0AE
:1018F00045E1E42E41E0F42E8091200300911F0386
:101900008023B1F08EEB9CE00E9449198FEB96E0AA
:1019100062E070E00E944B1981EC96E062E070E0BA
:101920000E944B198EEB96E061E070E00E944C192A
:101930008091BE06803209F497C0813230F4813044
:1019400059F0893009F0BFC032C0813209F471C04A
:10195000823209F0B8C0A4C080912003802321F016
:1019600081E091E00E9448198091BD06813A09F01A
:10197000AAC05E9A8091BF069091C00623E087308E
:10198000920739F48E010F5F1F4FC8010E94551650
:101990003FC08E010A5F1F4FB801BDDB8091E80098
:1019A000877F8093E800C8016FE070E039C08091C4
:1019B0002003802321F08BE091E00E944819809160
:1019C000BD06813209F07FC05E9A8091E800877F72
:1019D0008093E8008E010A5F1F4F6091C3067091EB
:1019E000C406C8010E94681B0E948D198091BF0621
:1019F0009091C00685509340D1F480ED97E0019717
:101A0000F1F7C8018E010F5F1F4FB8010E94AC179C
:101A10008091E800877F8093E800C80165E070E06E
:101A20000E94021B8091E8008B778093E8005E980B
:101A30004AC080912003802321F08AEA9CE00E9422
:101A400049198091BD06813A09F03DC08091E800B6
:101A5000877F8093E800C70167E070E00E94021B67
:101A60008091E8008B7719C080912003802321F0BA
:101A700086E99CE00E9449198091BD06813219F5E2
:101A80008091E800877F8093E800C70167E070E0FD
:101A90000E94681B8091E8008E778093E80013C055
:101AA00080912003802321F08EE79CE00E94491959
:101AB0008091BD06813239F48091E800877F809360
:101AC000E8000E948D1964960FB6F894DEBF0FBE31
:101AD000CDBFCF91DF911F910F91FF90EF900895AF
:101AE000CF92DF92EF92FF920F931F9381E061EC10
:101AF00042E30E945819082F82E060EC42E30E9402
:101B00005819C82E83E061E842E10E945819E82E76
:101B100084E060E842E10E94581910E0DD240C21C5
:101B20001D2101701070FF240E211F2120E030E0E4
:101B3000012B11F021E030E0082F10E002231323E5
:101B400085E061EC42E00E94581910921501109254
:101B50001601109217011092180120E030E0012BBD
:101B600011F021E030E090E028233923232B11F4F9
:101B700090E401C090E08BB18F7B982B9BB91F91B3
:101B80000F91FF90EF90DF90CF90089584B7877FFB
:101B900084BF88E10FB6F8948093600010926000D3
:101BA0000FBE80E090E020E80FB6F894209361002B
:101BB000809361000FBE569A5E98A1DB0C94241AA4
:101BC000E5DF5E98789408C05E9A8CE291E02AD1B5
:101BD0005E988CE291E026D18CDA892BA9F3BDDDE9
:101BE0000E94571972DC0E9457190E94291E0E94F8
:101BF0005719F2CF853180F4282F30E085E290E04C
:101C0000289FF001299FF00D389FF00D1124E85D09
:101C1000FC4F8081826080830895853180F4282F75
:101C200030E085E290E0289FF001299FF00D389F79
:101C3000F00D1124E85DFC4F80818D7F8083089535
:101C40001F9311E0812FE9DF1F5F1531D9F71F9135
:101C50000895482F8531A0F4282F30E085E290E0E8
:101C6000289FF001299FF00D389FF00D1124E85DA9
:101C7000FC4F10828091BC01481710F44093BC01C6
:101C80000895FC0120E090E003C08191280F9F5F40
:101C90009617D8F3922F9F7719F080E8891B982F19
:101CA000892F08952FEF8F3F920719F420E030E03D
:101CB00008C09C0130703695279580709F77280F5B
:101CC000391FC9010895282F332727FD309587FF35
:101CD00002C020583048C9010895689FB0011124FE
:101CE000672F770F770B65956595862F8F7708950A
:101CF0002498259888EC90E00197F1F7249A259A8A
:101D000088E592E00197F1F70895AF92BF92CF92E4
:101D1000DF92EF92FF920F931F9324982598E8EC9F
:101D2000F0E03197F1F7249A259AE0EFF0E031974F
:101D3000F1F7A0E0B0E0BC01CD010E94D41E5B0130
:101D40006C012BEA3AEA4AEA50E40E948A1F7B01BE
:101D50008C0120E030E040E85FE30E943C1E8823D5
:101D600014F461E054C0C801B70120E030E04FE74F
:101D700053E40E94861F18160CF045C0C601B50139
:101D800020E030E04AE754E40E94401E5B016C0111
:101D900020E030E04AE755E40E948A1F7B018C0175
:101DA00020E030E040E85FE30E943C1E88231CF402
:101DB00061E070E024C0C801B70120E03FEF4FE7C9
:101DC00057E40E94861F1816B4F4C601B50120E03E
:101DD00030E040E251E40E948A1F0E94A81E80E980
:101DE00091E005C0FC013197F1F761507040611539
:101DF0007105C1F70EC0C801B7010E94A81ECB0132
:101E00000197F1F706C0C801B7010E94A81E6A95A4
:101E1000F1F71F910F91FF90EF90DF90CF90BF905F
:101E2000AF900895AF92BF92CF92DF92EF92FF9260
:101E30000F931F93A8959C0140E65AEE4DC02031A8
:101E4000310534F0CA010197F1F72F50304044C0FA
:101E5000B901882777FD8095982F0E94D61E5B01D7
:101E60006C0120E030E04AE755E40E948A1F7B01C4
:101E70008C0120E030E040E85FE30E943C1E8823B4
:101E80001CF461E070E024C0C801B70120E03FEF1E
:101E90004FE757E40E94861F1816B4F4C601B50137
:101EA00020E030E040E251E40E948A1F0E94A81E18
:101EB00080E991E005C0FC013197F1F76150704075
:101EC00061157105C1F70CC0C801B7010E94A81EB9
:101ED000CB010197F1F704C0121613060CF4AFCF33
:101EE0001F910F91FF90EF90DF90CF90BF90AF9038
:101EF0000895982F8091C80085FFFCCF9093CE0065
:101F000008952F923F924F925F926F927F928F929D
:101F10009F92AF92BF92CF92DF92EF92FF920F9378
:101F20001F93CF93DF933C012B0180E090E06AE0A8
:101F3000262E8AC0E301C80FD91F38804C010894AF
:101F4000811C911CF301E80DF91D6081629DB001B7
:101F50001124882777FD8095982F0E94D61E5B015B
:101F60006C012BEA3AEA4AEA50E40E948A1F7B019C
:101F70008C0120E030E040E85FE30E943C1E8823B3
:101F800014F461E054C0C801B70120E030E04FE72D
:101F900053E40E94861F18160CF045C0C601B50117
:101FA00020E030E04AE754E40E94401E5B016C01EF
:101FB00020E030E04AE755E40E948A1F7B018C0153
:101FC00020E030E040E85FE30E943C1E88231CF4E0
:101FD00061E070E024C0C801B70120E03FEF4FE7A7
:101FE00057E40E94861F1816B4F4C601B50120E01C
:101FF00030E040E251E40E948A1F0E94A81E06C001
:1020000080E991E00197F1F7615070406115710529
:10201000B9F7132D12C0C801B7010E94A81ECB0149
:102020000197F1F7F6CFC801B7010E94A81E6A9583
:10203000F1F7EFCF89815DDF115021961123D1F7A0
:10204000C4010196830D911D8415950508F472CF86
:10205000DF91CF911F910F91FF90EF90DF90CF9084
:10206000BF90AF909F908F907F906F905F904F90B8
:102070003F902F90089590E0882309F491E0909389
:102080009806089590E0882309F491E090939906CA
:10209000089590E0882309F491E090939A060895BA
:1020A000EF92FF920F931F93CF93DF937C018B01ED
:1020B00080912003882341F08DE39DE00E9449191F
:1020C000C701B8010E944C19C0E0D0E006C0F7017A
:1020D000EC0FFD1F80810DDF2196C017D107B8F3EB
:1020E000DF91CF911F910F91FF90EF90089584E6BB
:1020F00090E098DEFDDD80E290E094DEF9DD82E1A3
:1021000090E090DE84EF90E000DE81E990E0FDDD7C
:1021100082ED90E0FADD8BE690E0F7DD84EE92E070
:10212000F4DD8EE091E0F1DD80E690E0EEDD8EEB17
:1021300090E0EBDD8AEF90E0E8DDDADD85E790E026
:1021400071DE86EE92E062E070E0AADF82E790E066
:10215000DCDD82EF90E0D9DD8AE092E0D6DD8BE62F
:1021600090E0D3DD8BEF90E0D0DD84E090E0CDDD3A
:102170008AE693E0CADD88EE92E060E370E0C1CECB
:1021800084E690E04FDEB4DD80E69DE60197F1F74E
:10219000AFDDAEDDADDDACDD83E290E043DEA8DD9A
:1021A000A7DDA6DD8EE090E03DDEA2DDA1DD8EE4C0
:1021B00090E038DE9DDD9CDD80E89EE30197F1F73D
:1021C00097DD96DD95DD8BE390E02CDE91DD90DDF3
:1021D0008DE792E062E070E063DF84E190E022DE70
:1021E0008FE792E069E070E05BDF89E390E01ADE60
:1021F00088E892E063E370E053DF8BEB92E063E208
:1022000070E04EDF86E490E00DDE8EED92E068E057
:1022100070E046DF86E490E005CEEF92FF920F93E8
:102220001F93DF93CF9300D00F92CDB7DEB78A0113
:1022300095EB99836A838B837E010894E11CF11CE2
:10224000C70163E070E02CDF85EA8983802F8F77F8
:102250008A8300701F771B83C70163E070E020DF73
:102260000F900F900F90CF91DF911F910F91FF90E2
:10227000EF9008951F93CF93DF93FC01118185E2C6
:10228000189FE0011124C85DDC4F8281898782811B
:10229000938197FD06C06D8120DD8B8F8FE790E0E5
:1022A00006C06D81809519DD8B8F81E091E09AA346
:1022B00089A31CA21BA2212F30E085E290E0289F79
:1022C000F001299FF00D389FF00D1124E85DFC4FBF
:1022D000808182FF0AC04B8D812F64E750E09DDF33
:1022E00049A15AA1812F6CE798DFDF91CF911F910F
:1022F0000895CF92DF92FF920F931F93CF93DF93B6
:102300008C01FC01F180CF2CDD2485E290E0C89E99
:102310009001C99E300DD89E300D1124F901E85D61
:10232000FC4F83858D3008F47CC0803120F08031F3
:1023300009F077C049C0E901CE5CDC4FF801828129
:10234000882351F48481BFDC98878F83F8018381CF
:10235000BADC9C878B8712C0F8018481B4DC9A8731
:102360008987F8018381803829F48FE790E09E8780
:102370008D8704C08195A7DC9E878D8785E290E0DC
:10238000C89EF001C99EF00DD89EF00D1124E85DA5
:10239000FC4F808182FF45C0F8018281882351F47F
:1023A0004F8158858F2D68E438DF4B855C858F2DF4
:1023B00060E536C049855A858F2D6CE42EDF4D854A
:1023C0005E858F2D64E52CC0E901CE5CDC4FF80101
:1023D0008281882329F4848176DC98878F8305C0E5
:1023E000F801848170DC9A87898785E290E0C89E35
:1023F000F001C99EF00DD89EF00D1124E85DFC4F50
:10240000808182FF0EC0F8018281882329F44F81E8
:1024100058858F2D68E404C049855A858F2D6CE45A
:10242000FCDEDF91CF911F910F91FF90DF90CF9055
:102430000895FF920F931F93CF93DF938C01FC01BC
:10244000F18085E2F89EE0011124C85DDC4F8281B5
:102450008F8383818887868197819C838B836D811D
:1024600082813BDC888F6D81F801838136DC8E8F21
:10247000F8018481958116DC9A8F898FF801868115
:1024800097818F5F9F4719F41D8E1C8E16C02F2DCC
:1024900030E085E290E0289FF001299FF00D389F01
:1024A000F00D1124E85DFC4F8181928123813481FC
:1024B000821B930BF7DB9D8F8C8F2F2D30E085E2F5
:1024C00090E0289FF001299FF00D389FF00D112416
:1024D000E85DFC4F808182FF14C04C8D5D8D8F2D97
:1024E00060E69BDE498D5A8D8F2D6CE596DE4E8D14
:1024F0008F2D6CE650E091DE488D8F2D64E650E024
:102500008CDEDF91CF911F910F91FF900895DF93A3
:10251000CF9300D00F92CDB7DEB795EB99836A8346
:102520008B83CE01019663E070E0BADD0F900F90CF
:102530000F90CF91DF910895CF92DF92EF92FF92AB
:102540000F931F93DF93CF9300D0CDB7DEB7F82E54
:10255000E92ED62EC72E80EF89838E010F5F1F4F85
:10256000C80161E070E09CDD88E193E064E070E028
:1025700097DD8F2D9E2D6D2D7C2D92DD8F2D9E2D27
:102580006D2D7FDB8A83CE01029661E070E088DDED
:1025900087EF8983C80161E070E082DD0F900F90C2
:1025A000CF91DF911F910F91FF90EF90DF90CF902F
:1025B00008956F927F928F929F92BF92CF92DF92F7
:1025C000EF92FF920F931F93CF93DF938C01DC0167
:1025D0001196DC901197ED2CFF2485E290E0FC0130
:1025E000EE9EC001EF9E900DFE9E900D112422E301
:1025F000622E23E0722E680E791E13962D913C9167
:102600001497EC01C85DDC4FFFE72F3F3F0719F43B
:102610001E861D8604C0C90145DB9E878D87D801B3
:1026200013968D919C91149725E230E0E29EF00183
:10263000E39EF00DF29EF00D1124E85DFC4F9283B5
:102640008183808182FF05C0458556858D2D60E49C
:10265000E4DDF8018281883030F4833058F4813031
:1026600008F4DFC00AC08B3008F4BFC08B3009F01B
:10267000D8C0C9C0CC24C39401C0CC2485E2D89E64
:10268000E0011124C85DDC4FFAE08F2E912C8C0EF6
:102690009D1ED8011C968C911C9790E0880F991F65
:1026A0009C0120783170220F331F8F779070280F94
:1026B000391F3A8B298B13968D919C9114978F5FBC
:1026C0009F4729F08B819C818F5F9F4719F41D8E56
:1026D0001C8E13C029813A818B819C8182179307BC
:1026E00040F489819A812B813C81821B930BDADA39
:1026F00002C08D859E859D8F8C8F85E290E0E89E3F
:10270000F001E99EF00DF89EF00D1124E85DFC4FFC
:102710008581D80119969C911997BB24891789F155
:10272000BB24B39495838F8119966C91D6DA888FE8
:102730008885F8016185D1DA8E8FCC20E1F089851A
:102740006D81CBDA182F8E81810FBDDA9AA389A310
:102750008E81811BB8DA9CA38BA3888182FF11C074
:1027600049A15AA18D2D64E758DD4BA15CA18D2DA7
:1027700068E753DD06C08985D80119966C91ADDAFA
:102780008B8F85E290E0E89EF001E99EF00DF89EC7
:10279000F00D1124E85DFC4F808182FF1EC0498945
:1027A0005A898D2D68E439DD4C8D5D8D8D2D60E667
:1027B00034DDBB20B1F14E8D8D2D6CE650E02DDD6A
:1027C000488D8D2D64E650E028DDCC2051F54B8DF1
:1027D0008D2D64E750E021DD24C0C4016BE170E081
:1027E000ABDE8881846088831CC085E290E0E89E2F
:1027F000F001E99EF00DF89EF00D1124E85DFC4F0C
:10280000E0816FE00FC085E290E0E89EF001E99E74
:10281000F00DF89EF00D1124E85DFC4FE0816BE0B7
:1028200001C06BE185E290E0E89EE001E99ED00DF9
:10283000F89ED00D1124C85DDC4F888182FD06C052
:10284000C30170E079DE888184608883DF91CF9155
:102850001F910F91FF90EF90DF90CF90BF909F90CE
:102860008F907F906F900895DF93CF930F92CDB7A5
:10287000DEB78983282F30E080E0662309F481E009
:10288000F901E956F94F858385E290E0289FF00130
:10289000299FF00D389FF00D1124E85DFC4F8081D9
:1028A000823069F484ED9CE0F4D4CE01019661E0BD
:1028B00070E0F2D48981B1D9898160E328DE0F907C
:1028C000CF91DF9108950F931F938C0187E49DE0D2
:1028D000E0D4C801019661E070E0DED41F910F9151
:1028E0000895DF92EF92FF920F931F93DF93CF93A0
:1028F0000F92CDB7DEB78C01FC018181898389E914
:102900009DE0C7D4C80164E070E0C6D483E99DE0CF
:10291000C0D4CE01019661E070E0BED48AE89DE0AB
:10292000B8D4C801029661E070E0B6D481E89DE0B9
:10293000B0D4C801039661E070E0AED4D980ED2C2C
:10294000FF24F8018281282F332727FD309587FF48
:1029500003C020953095316085E290E0E89EF0015B
:10296000E99EF00DF89EF00D1124E85DFC4F32A3B6
:1029700021A3F8018381A7D99C0185E290E0E89E1C
:102980008001E99E100DF89E100D1124085D1C4F6A
:10299000F80134A323A3808182FF0BC041A152A17F
:1029A0008D2D68E73ADCF80143A154A1898164E7E1
:1029B00034DC0F90CF91DF911F910F91FF90EF903A
:1029C000DF900895DF92EF92FF920F931F93DF93B2
:1029D000CF930F92CDB7DEB77C01FC018181898353
:1029E00083EE9DE056D4C70167E070E055D48DEDCD
:1029F0009DE04FD4CE01019661E070E04DD480EDB2
:102A00009DE047D4C701029661E070E045D483ECB5
:102A10009DE03FD4C701039661E070E03DD486EBB2
:102A20009DE037D4C701049661E070E035D489EAAF
:102A30009DE02FD4C701059662E070E02DD4998106
:102A400085E2989F80011124085D1C4FF701828167
:102A5000F80181878FE790E092A381A381E091E064
:102A600094A383A3F70165817681F3E0683E7F0735
:102A700010F081E004C06A30710520F48FE6F8019F
:102A8000878F07C088EE93E00E94ED1F6F77F801F3
:102A9000678FF8018385823019F08385833091F543
:102AA000F70184818052813C10F483E001C082E010
:102AB000F8018387F8016581F70182810ED9D82E4C
:102AC000F701838187FD8F5F85958D0DFCD8F80117
:102AD00092A381A3F701838187FD8F5F85958D196F
:102AE000F2D8F80194A383A3808182FF0BC041A197
:102AF00052A1898164E791DBF80143A154A1898146
:102B000068E78BDBF801808182FF05C0478D8981F2
:102B100060E750E082DB0F90CF91DF911F910F9122
:102B2000FF90EF90DF9008950F931F93CF93DF9363
:102B30008C01DC018C91882311F482E08C93F801E4
:102B40009081943110F080E04BC085E2989FE001C5
:102B50001124C85DDC4FC80161E070E09CD388811E
:102B6000813019F482E39DE00CC0823019F488E2D0
:102B70009DE007C0843019F482E29DE002C08CE140
:102B80009DE087D3D801EC91F0E0E956F94F8581BB
:102B9000882319F08FE09DE002C083E09DE079D3A7
:102BA00088818823C1F087EF9CE073D3CE01019622
:102BB00062E070E070D38AEE9CE06BD3CE010396A6
:102BC00062E070E068D381EE9CE063D3CE010596AD
:102BD00061E070E060D3F80180818F5F808381E0E5
:102BE000DF91CF911F910F91089527E936E0C90138
:102BF00060E070E049E150E00E941420539A109286
:102C0000C8008FE190E09093CD008093CC0086E8DF
:102C10008093CA0088E08093C9001092CE0028E219
:102C200033E0C90160E070E049E053E00E94142005
:102C300024E936E0C90160E070E043E050E00E9422
:102C4000142082E08093BC018091B706843009F49F
:102C50004ECA96CA82E08093BC0128E233E0C901E3
:102C600060E070E049E053E00C941420DF93CF93D0
:102C70000F92CDB7DEB7FC01818189838CE59DE0A1
:102C800008D3CE01019661E070E006D389818F3FC1
:102C900019F4E0DF8FE703C00E94290E898160E10B
:102CA00036DC0F90CF91DF9108950F931F938C0125
:102CB00081EF9DE0EED2CEDF87E0F80180838FEFD9
:102CC0009FEF928381838AE0838383E08483C801BA
:102CD00065E070E0E1D21F910F9108951F938091FC
:102CE000BC01843111F410E03BC01091BC011F5FA6
:102CF0001093BC01115025E230E009C08091BC0165
:102D00008431A0F48091BC018F5F8093BC018091DD
:102D1000BC0190E0829FF001839FF00D929FF00D27
:102D20001124E85DFC4F8081882341F7212F30E09A
:102D300085E290E0A901489F9001499F300D589F7E
:102D4000300D1124F901E85DFC4F81E080832E5C99
:102D50003C4FC90160E070E04BE150E00E9414205C
:102D6000812F1F9108958CE191E092C2CF93DF9360
:102D7000EC01998182E080939406809195068460AD
:102D800080939506809195068061809395061092B8
:102D90009606913039F48DE291E07AD280919506D1
:102DA0008E7F08C0923049F48FE391E071D2809118
:102DB000950684608093950657C0933011F580E5A1
:102DC00091E066D28FE092E062E070E069D98EE532
:102DD00091E020E931E0F9013197F1F70197D9F756
:102DE00080E991E020E931E0F9013197F1F70197AD
:102DF000D9F781E192E068E070E052D9109296062E
:102E000033C09430E1F481E691E042D289E192E06E
:102E100062E070E045D98EE591E020E931E0F9010A
:102E20003197F1F70197D9F780E991E020E931E096
:102E3000F9013197F1F70197D9F70CDF15C09530FB
:102E400019F487E691E004C0963021F48DE691E014
:102E50001FD20AC0907C41F085E59DE01AD2CE01D8
:102E6000019661E070E018D2DF91CF91089586E776
:102E700091E00EC280E991E00BC20F931F93DF93A4
:102E8000CF930F92CDB7DEB78C01FC01818189838E
:102E9000CE01019661E070E0FED189818F3F11F48F
:102EA0008FE78983F80182818130B9F48AE79DE058
:102EB000F1D1CE01019661E070E0EED1F80181819F
:102EC0000E94FA0D9981E92FF0E0E956F94F8581CA
:102ED000882309F03BC0892F1DC08230E9F48FE6BA
:102EE0009DE0D8D10E94200EE981F0E0E956F94F2B
:102EF0008581882319F48FE760E309DBF80181817C
:102F00000E94FA0DE981F0E0E956F94F85818823A6
:102F1000E9F48FE760E213C0833099F489E69DE01D
:102F2000B9D1F80181810E940D0E9981E92FF0E05D
:102F3000E956F94F8581882349F4892F60E3E7DA60
:102F400005C0C801029661E070E0A6D10F90CF9154
:102F5000DF911F910F9108950F931F93CF93DF93EC
:102F60008C01EB0187E19EE094D1C80164E070E040
:102F700093D186E08883B2DE982F8983882319F461
:102F800082E08A836BC021E02A8385E2989FD0018A
:102F90001124A85DBC4F8FEF9FE712969C938E93F0
:102FA000119714969C938E9313978FEF15968C938D
:102FB000159716961C92169717968C931797189636
:102FC0008C9318979FE75B969C935B975F962C93E7
:102FD0005F97F8018181E82FF0E0EE5FFD4F80817F
:102FE0001B968C931B9758961C9258975A961C9236
:102FF0001E9259975E961C925E975D961C921E9249
:103000005C9783E21A968C931A971C969C931C9754
:1030100050961C921E921F9753969C93539784E64A
:1030200054968C93549755961C92559780E15696DA
:103030008C9356978EE457968C9357971B968C914A
:103040001B97823129F494961C921E92939706C086
:1030500081E091E094969C938E9393978FEF9FEFEE
:103060009C838B8386EA91E06881AE0125E030E0A5
:1030700014D180E29EE40197F1F7DF91CF911F9187
:103080000F910895CF93DF93EC019B015E9A80919D
:10309000200390911F03892331F080EB91E065ECD0
:1030A00071E0AE0103D18881873099F1883078F4DE
:1030B000833019F1843030F48130C9F0823009F066
:1030C0003CC018C08530F9F0863000F519C08B304F
:1030D00049F18C3028F48830F9F08A3071F51FC03E
:1030E0008D3031F18D3008F18E3039F524C0CE01AC
:1030F00060DA23C0CE019DD920C0CE01FAD81DC010
:10310000CE0160DC1AC0CE01B5D817C0CE01E9DB14
:1031100014C0CE01AFDE11C0CE01A9DE0EC0CE01BB
:10312000ACDE0BC0CE01A2DD08C0CE011FDE05C0A3
:10313000CE01C9DB02C0CE0116DE5E98DF91CF91D1
:10314000089523B5216023BD90938500809384006A
:1031500081E086BBB09BFECF0895FC012381828174
:1031600028278481282785812827603121F48181BF
:10317000908189272827822F82958F708227982F08
:10318000969596959827292F269529276B3011F427
:1031900081812827822F817008955E9A81EC9FEFAC
:1031A000D0DF5E9883E89FEFCCCF1DB880E48EB966
:1031B00010BA83EF81BB93E095BD85E080938100D9
:1031C000909369008BEC93EFBCDFE7DF8BEC93EF20
:1031D000B8DF80E06EE70E943808DFDF8091890663
:1031E00080918906813141F482E896E060E1B5DFA3
:1031F000882311F083E00BC0809189068C3079F42C
:1032000082E896E06BE0A9DF882349F084E08093B0
:10321000B706E898F8948FE0809331060895E8980F
:10322000D4CF1F938091B706843011F010E101C014
:103230001BE080E0612F0E943808E898882361F441
:10324000809132068F5F809332068B30F8F0F894CD
:1032500080E28093D800FFCF1092320682E896E099
:10326000612F7BDF882391F08091B706843051F481
:10327000A0EBB6E0E2E8F6E086E001900D92815026
:10328000E1F704C082E896E00E947E071F9108954E
:1032900008950895089508950895DF93CF930F92A8
:1032A000CDB7DEB70F90CF91DF91089508950895BF
:1032B000382F282F2CC02093E900231721F4762FD4
:1032C000942F50E006C07091EC009091ED00509169
:1032D000F00091FF1BC08091EB008E7F8093EB008C
:1032E0008091ED008D7F8093ED008091EB008160F7
:1032F0008093EB007093EC009093ED005093F000FE
:103300008091EE0087FD02C080E008952F5F273096
:1033100090F23093E90081E008958091BD06882302
:103320009CF404C08091BC068823B9F08091E80029
:1033300082FFF8CF8091E8008B778093E8000895B2
:103340008091BC06882349F08091E80080FFF8CF87
:103350008091E8008E778093E80008954091E40022
:103360005091E50024E68091EC0080FF24C080911C
:10337000E80080FD1EC08091BC06882311F482E025
:103380000895853011F483E008958091EB0085FF66
:1033900002C081E008958091E4009091E5008417D7
:1033A000950709F3222311F484E008952150AC011C
:1033B000DACF80E008958091E80082FFDCCFF9CF7A
:1033C000EF92FF920F931F934AD051D008ED10E077
:1033D000F80180818F7780838081806880838081FD
:1033E0008F7D808319BC1092BC061092B806109293
:1033F000BA061092B90680EEE82EF12CF701808112
:103400008B7F8083F80180818160808380E060E031
:1034100042E04EDFE1EEF0E080818E7F8083E2EEDD
:10342000F0E0808181608083808188608083F70103
:1034300080818E7F8083F8018081806180831F91ED
:103440000F91FF90EF900895E7EDF0E080818160AB
:10345000808384E082BF81E08093BB06B1CFE8ED3A
:10346000F0E080818E7F80831092E20008951092B8
:10347000DA001092E10008951F920F920FB60F929A
:1034800011242F933F934F935F936F937F938F9369
:103490009F93AF93BF93EF93FF938091E10082FFDF
:1034A0000AC08091E20082FF06C08091E1008B7F1C
:1034B0008093E100CDD38091DA0080FF1FC080911E
:1034C000D80080FF1BC08091DA008E7F8093DA00E5
:1034D0008091D90080FF0DC080E189BD82E189BD66
:1034E00009B400FEFDCF81E08093BC060E94610A12
:1034F00005C019BC1092BC060E94630A8091E100CD
:1035000080FF18C08091E20080FF14C08091E2002B
:103510008E7F8093E2008091E20080618093E200E0
:103520008091D80080628093D80019BC85E0809398
:10353000BC068ED38091E10084FF2DC08091E20013
:1035400084FF29C080E189BD82E189BD09B400FE04
:10355000FDCF8091D8008F7D8093D8008091E100CD
:103560008F7E8093E1008091E2008F7E8093E20065
:103570008091E20081608093E2008091B806882308
:1035800031F48091E30087FD02C081E001C084E056
:103590008093BC065DD38091E10083FF22C08091BF
:1035A000E20083FF1EC08091E100877F8093E100ED
:1035B00082E08093BC061092B8068091E1008E7F75
:1035C0008093E1008091E2008E7F8093E200809101
:1035D000E20080618093E20080E060E042E068DE2B
:1035E00037D3FF91EF91BF91AF919F918F917F91D1
:1035F0006F915F914F913F912F910F900FBE0F9060
:103600001F9018959C014091C3065091C40646171F
:10361000570718F4F90190E045C06115710511F0E4
:10362000AB01F8CF8091E8008E778093E80040E00E
:1036300050E0F0CF8091BC06882309F445C0853066
:1036400009F444C08091E80083FF02C081E008953E
:103650008091E80082FD32C08091E80080FF22C0A6
:103660008091F3009091F200782F60E0292F30E0F4
:10367000262B372B07C081918093F1004150504099
:103680002F5F3F4F4115510519F02830310598F350
:1036900090E02830310509F491E08091E8008E77C0
:1036A0008093E8004115510529F6992319F606C0C3
:1036B0008091BC06882341F0853041F08091E8007C
:1036C00082FFF6CF80E0089582E0089583E00895B8
:1036D0009C016115710529F48091E8008B77809336
:1036E000E800F90127C08091BC06882399F1853054
:1036F00099F18091E80083FF02C081E008958091F4
:10370000E80082FFF0CF06C08091F1008193615004
:10371000704059F02091F3008091F200322F20E0A8
:1037200090E0822B932B892B79F78091E8008B779F
:103730008093E80061157105B1F606C08091BC0662
:10374000882341F0853041F08091E80080FFF6CF7A
:1037500080E0089582E0089583E008959C014091FF
:10376000C3065091C4064617570718F4F90190E0B4
:1037700046C06115710511F0AB01F8CF8091E800EA
:103780008E778093E80040E050E0F0CF8091BC0657
:10379000882309F447C0853009F446C08091E800C9
:1037A00083FF02C081E008958091E80082FD34C06B
:1037B0008091E80080FF23C08091F3009091F20097
:1037C000782F60E0292F30E0262B372B08C084911A
:1037D0008093F1003196415050402F5F3F4F41158B
:1037E000510519F02830310590F390E0283031056B
:1037F00009F491E08091E8008E778093E80041150C
:10380000510521F6992309F0C1CF06C08091BC066D
:10381000882341F0853041F08091E80082FFF6CFA7
:1038200080E0089582E0089583E00895BF92CF92EA
:10383000DF92EF92FF920F931F93CF93DF93182F96
:10384000092F7B016A018ADDB82E8823B1F5812F0B
:10385000902F9C01E901C114D10439F0F601808157
:103860009181E81AF90AC80FD91F00E010E022C0C0
:103870008091E80085FD16C08091E8008B778093E9
:10388000E800E7D1C114D10449F0F60180819181AB
:10389000800F911F9183808385E010C05FDD8823B6
:1038A00049F00CC08091F10089930894E108F10877
:1038B0000F5F1F4FE114F104D9F68B2DDF91CF91EB
:1038C0001F910F91FF90EF90DF90CF90BF900895E0
:1038D000BF92CF92DF92EF92FF920F931F93CF93FD
:1038E000DF93182F092F7B016A0138DDB82E88235A
:1038F000B1F5812F902F9C01E901C114D10439F059
:10390000F60180819181E81AF90AC80FD91F00E0F9
:1039100010E022C08091E80085FD16C08091E8008B
:103920008E778093E80095D1C114D10449F0F60157
:1039300080819181800F911F9183808385E010C0E9
:103940000DDD882349F00CC089918093F100089423
:10395000E108F1080F5F1F4FE114F104D9F68B2D38
:10396000DF91CF911F910F91FF90EF90DF90CF905B
:10397000BF9008950F931F93DF93CF93CDB7DEB71A
:10398000AC970FB6F894DEBF0FBECDBFEDEBF6E0FF
:103990008091F100819326E0E53CF207C9F70E948F
:1039A000610C8091E80083FF3AC18091BD0630919F
:1039B000BE06353009F487C0363040F43130C9F1E5
:1039C000313070F0333009F02AC133C0383009F497
:1039D000F7C0393009F406C1363009F020C197C06C
:1039E000803821F0823809F01AC108C09091B906D8
:1039F0008091BA06882399F0926011C08091C10627
:103A00008F708093E9008091EB0090E025E096951F
:103A100087952A95E1F7982F91701092E90080918F
:103A2000E800877F8093E8009093F1001092F10006
:103A3000D2C0882319F0823009F0F1C090E08F7174
:103A40009070009721F0029709F0E9C00CC08091B6
:103A5000BF06813009F0E3C01092BA06333069F531
:103A60008093BA062AC08091BF06882331F5209141
:103A7000C1062F7009F4D3C02093E9008091EB00B8
:103A800080FF1BC0333021F48091EB00806213C0B3
:103A90008091EB0080618093EB0081E090E002C0B8
:103AA000880F991F2A95E2F78093EA001092EA00A6
:103AB0008091EB0088608093EB001092E900809188
:103AC000E800877F8BC0882309F0A9C01091BF064A
:103AD0001F770FB7F8948091E800877F8093E80004
:103AE0001CDC8091E80080FFFCCF8091E3008078AF
:103AF000812B8093E30080688093E300112311F40D
:103B000082E001C083E08093BC060FBF88C080586C
:103B1000823008F084C08091BF069091C00623E0F7
:103B20008C3D920709F033C083E08C838AE28B835B
:103B30007FB7F894DE0115966EE040E050E011E2A8
:103B4000E62FF0E010935700849140FF03C0829568
:103B50008F706F5F8F70282F30E08A3018F0C901A6
:103B6000C79602C0C901C0968D939D934F5F5F4F6A
:103B70004431510529F77FBF8091E800877F80930A
:103B8000E800CE0103966AE270E03CDD13C060916C
:103B9000C106AE014F5F5F4F0E94BE09BC01009796
:103BA00009F43DC08091E800877F8093E800898117
:103BB0009A81D4DD8091E8008B778093E8002FC054
:103BC000803869F58091E800877F8093E8008091D4
:103BD000B8068093F1008091E8008E778093E8002A
:103BE0009CDB1DC08823D9F49091BF069230B8F4B5
:103BF0008091E800877F8093E8009093B8068DDB82
:103C00008091B806882331F48091E30087FD02C0DB
:103C100081E001C084E08093BC060E94700D809119
:103C2000E80083FF0AC08091EB0080628093EB0084
:103C30008091E800877F8093E800AC960FB6F894F7
:103C4000DEBF0FBECDBFCF91DF911F910F910895C1
:103C500008951F938091BC06882361F01091E900BC
:103C60001092E9008091E80083FF01C083DE1F709D
:103C70001093E9001F910895D4D008F481E00895CD
:103C80000CD00AC102D140F0F9D030F021F45F3FEE
:103C900019F0EBC0511134C1EEC00FD198F3992344
:103CA000C9F35523B1F3951B550BBB27AA27621700
:103CB0007307840738F09F5F5F4F220F331F441F45
:103CC000AA1FA9F333D00E2E3AF0E0E830D091507D
:103CD0005040E695001CCAF729D0FE2F27D0660F6A
:103CE000771F881FBB1F261737074807AB07B0E8A9
:103CF00009F0BB0B802DBF01FF2793585F4F2AF0BF
:103D00009E3F510568F0B1C0FBC05F3FECF3983EA9
:103D1000DCF3869577956795B795F7959F5FC9F71B
:103D2000880F911D9695879597F90895E1E0660FA4
:103D3000771F881FBB1F621773078407BA0720F01D
:103D4000621B730B840BBA0BEE1F88F7E095089586
:103D5000BCD088F09F5790F0B92F9927B751A0F0A9
:103D6000D1F0660F771F881F991F1AF0BA95C9F70F
:103D700012C0B13081F0C3D0B1E00895C0C0672F48
:103D8000782F8827B85F39F0B93FCCF386957795BF
:103D90006795B395D9F73EF49095809570956195A8
:103DA0007F4F8F4F9F4F0895E89409C097FB3EF4D3
:103DB00090958095709561957F4F8F4F9F4F992378
:103DC000A9F0F92F96E9BB279395F69587957795F6
:103DD0006795B795F111F8CFFAF4BB0F11F460FFB6
:103DE0001BC06F5F7F4F8F4F9F4F16C0882311F00E
:103DF00096E911C0772321F09EE8872F762F05C022
:103E0000662371F096E8862F70E060E02AF09A95BC
:103E1000660F771F881FDAF7880F9695879597F9B1
:103E20000895990F0008550FAA0BE0E8FEEF16164B
:103E30001706E807F907C0F012161306E407F5079E
:103E400098F0621B730B840B950B39F40A2661F012
:103E5000232B242B252B21F408950A2609F4A140B5
:103E6000A6958FEF811D811D089597F99F6780E8C2
:103E700070E060E008959FEF80EC089500240A94BC
:103E80001616170618060906089500240A94121635
:103E90001306140605060895092E0394000C11F468
:103EA000882352F0BB0F40F4BF2B11F460FF04C015
:103EB0006F5F7F4F8F4F9F4F089557FD9058440F6E
:103EC000551F59F05F3F71F04795880F97FB991F79
:103ED00061F09F3F79F08795089512161306140636
:103EE000551FF2CF4695F1DF08C0161617061806C3
:103EF000991FF1CF86957105610508940895E8949E
:103F0000BB2766277727CB0197F908958ADF08F446
:103F10008FEF08950BD0C0CFB1DF28F0B6DF18F0D7
:103F2000952309F0A2CFA7CF1124EACFC6DFA0F3D3
:103F3000959FD1F3950F50E0551F629FF001729F3E
:103F4000BB27F00DB11D639FAA27F00DB11DAA1F5D
:103F5000649F6627B00DA11D661F829F2227B00DAA
:103F6000A11D621F739FB00DA11D621F839FA00D35
:103F7000611D221F749F3327A00D611D231F849F85
:103F8000600D211D822F762F6A2F11249F575040DC
:103F90008AF0E1F088234AF0EE0FFF1FBB1F661F77
:103FA000771F881F91505040A9F79E3F510570F030
:103FB0005CCFA6CF5F3FECF3983EDCF38695779518
:103FC0006795B795F795E7959F5FC1F7FE2B880F2B
:103FD000911D9695879597F90895AA1BBB1B51E1F2
:103FE00007C0AA1FBB1FA617B70710F0A61BB70B69
:103FF000881F991F5A95A9F780959095BC01CD010E
:10400000089597FB092E07260AD077FD04D0E5DF37
:1040100006D000201AF4709561957F4F0895F6F749
:10402000909581959F4F0895DC0101C06D9341509B
:0A4030005040E0F70895F894FFCF28
:10403A00FF4765745265706F7274005365745265F8
:10404A00706F72740000000000000008536574204D
:10405A00437573746F6D20466F72636500446973AC
:10406A0061626C65204163747561746F7273004597
:10407A006E61626C65204163747561746F7273005E
:10408A0053746F7020416C6C204566666563747367
:10409A0000526573657400506175736500436F6EF5
:1040AA0074696E75650053657420446F776E6C6F22
:1040BA00616420466F7263652053616D706C6500A0
:1040CA0053657420437573746F6D20466F72636510
:1040DA0020446174610020203D3E205573623A00FD
:1040EA003C3D20466662446174613A0002FF7F00EB
:1040FA0000000102040E0008000500070004000485
:10410A00000F000300000004000200020002000584
:10411A0000F000010A0123127F5A1900005A007F99
:10412A006400104E7F00007F5A197F01007F000053
:10413A00004EF712060502080A0B0D0E0F1001C5F4
:10414A0001B57C7FA57F00C506C501C507B0400043
:10415A00B14000B24000B34000B44000B54000B6E0
:10416A004000B74000B84000B94000BA4000BB4028
:10417A0000BC4000BD4000BE4000BF4000B040004F
:10418A00B14000B24000B34000B44000B54000B6B0
:10419A004000B74000B84000B94000BA4000BB40F8
:1041AA0000BC4000BD4000BE4000BF4000C501F059
:1041BA0000010A0110056BF7B5407FA57257B54497
:1041CA007FA53C43B5487FA57E00B54C7FA504007A
:1041DA00B5507FA50200B5547FA50200B5587FA54A
:1041EA00007EB55C7FA53C00B5607FA51465B5640B
:1041FA007FA57E6BB5687FA53600B56C7FA52800C4
:10420A00B5707FA5664CB5747FA57E01C501B57CE6
:10421A007FA57F00C506F31D063CF10E4301007D14
:10422A00063CF17E04013E4E063CF11C45013E2F40
:10423A00063CF10B46017D000278F31D064BF11096
:10424A0040007F00023CF36A00010A0100010204F7
:02425A00020060
:00000001FF
